{
    "_format": "hh-sol-artifact-1",
    "contractName": "AccessoryHolder1155",
    "sourceName": "contracts/AccessoryHolder1155.sol",
    "abi": [
        {
            "anonymous": false,
            "inputs": [
                {
                    "indexed": false,
                    "internalType": "uint256",
                    "name": "asunaId",
                    "type": "uint256"
                },
                {
                    "indexed": false,
                    "internalType": "uint256[]",
                    "name": "accessoryId",
                    "type": "uint256[]"
                }
            ],
            "name": "ItemEquipped",
            "type": "event"
        },
        {
            "anonymous": false,
            "inputs": [
                {
                    "indexed": false,
                    "internalType": "uint256",
                    "name": "asunaId",
                    "type": "uint256"
                },
                {
                    "indexed": false,
                    "internalType": "uint256[]",
                    "name": "accessoryId",
                    "type": "uint256[]"
                }
            ],
            "name": "ItemUnequipped",
            "type": "event"
        },
        {
            "anonymous": false,
            "inputs": [
                {
                    "indexed": true,
                    "internalType": "address",
                    "name": "previousOwner",
                    "type": "address"
                },
                {
                    "indexed": true,
                    "internalType": "address",
                    "name": "newOwner",
                    "type": "address"
                }
            ],
            "name": "OwnershipTransferred",
            "type": "event"
        },
        {
            "inputs": [],
            "name": "accessoryContract",
            "outputs": [
                {
                    "internalType": "address",
                    "name": "",
                    "type": "address"
                }
            ],
            "stateMutability": "view",
            "type": "function"
        },
        {
            "inputs": [
                {
                    "internalType": "uint256",
                    "name": "",
                    "type": "uint256"
                },
                {
                    "internalType": "uint256",
                    "name": "",
                    "type": "uint256"
                }
            ],
            "name": "accessoryToAsunaToCounter",
            "outputs": [
                {
                    "internalType": "uint256",
                    "name": "",
                    "type": "uint256"
                }
            ],
            "stateMutability": "view",
            "type": "function"
        },
        {
            "inputs": [
                {
                    "internalType": "uint256",
                    "name": "asunaId",
                    "type": "uint256"
                },
                {
                    "internalType": "uint256[]",
                    "name": "accessoryIds",
                    "type": "uint256[]"
                },
                {
                    "internalType": "uint256[]",
                    "name": "accessoryQuantities",
                    "type": "uint256[]"
                },
                {
                    "internalType": "address",
                    "name": "_accessoriesOwner",
                    "type": "address"
                }
            ],
            "name": "equipAccessories",
            "outputs": [],
            "stateMutability": "nonpayable",
            "type": "function"
        },
        {
            "inputs": [
                {
                    "internalType": "address",
                    "name": "",
                    "type": "address"
                },
                {
                    "internalType": "address",
                    "name": "",
                    "type": "address"
                },
                {
                    "internalType": "uint256[]",
                    "name": "",
                    "type": "uint256[]"
                },
                {
                    "internalType": "uint256[]",
                    "name": "",
                    "type": "uint256[]"
                },
                {
                    "internalType": "bytes",
                    "name": "",
                    "type": "bytes"
                }
            ],
            "name": "onERC1155BatchReceived",
            "outputs": [
                {
                    "internalType": "bytes4",
                    "name": "",
                    "type": "bytes4"
                }
            ],
            "stateMutability": "nonpayable",
            "type": "function"
        },
        {
            "inputs": [
                {
                    "internalType": "address",
                    "name": "",
                    "type": "address"
                },
                {
                    "internalType": "address",
                    "name": "",
                    "type": "address"
                },
                {
                    "internalType": "uint256",
                    "name": "",
                    "type": "uint256"
                },
                {
                    "internalType": "uint256",
                    "name": "",
                    "type": "uint256"
                },
                {
                    "internalType": "bytes",
                    "name": "",
                    "type": "bytes"
                }
            ],
            "name": "onERC1155Received",
            "outputs": [
                {
                    "internalType": "bytes4",
                    "name": "",
                    "type": "bytes4"
                }
            ],
            "stateMutability": "nonpayable",
            "type": "function"
        },
        {
            "inputs": [],
            "name": "owner",
            "outputs": [
                {
                    "internalType": "address",
                    "name": "",
                    "type": "address"
                }
            ],
            "stateMutability": "view",
            "type": "function"
        },
        {
            "inputs": [],
            "name": "renounceOwnership",
            "outputs": [],
            "stateMutability": "nonpayable",
            "type": "function"
        },
        {
            "inputs": [
                {
                    "internalType": "address",
                    "name": "_accessoryAddress",
                    "type": "address"
                }
            ],
            "name": "setAccessoryContractAddress",
            "outputs": [],
            "stateMutability": "nonpayable",
            "type": "function"
        },
        {
            "inputs": [
                {
                    "internalType": "address",
                    "name": "_manager",
                    "type": "address"
                },
                {
                    "internalType": "bool",
                    "name": "_permission",
                    "type": "bool"
                }
            ],
            "name": "setManagers",
            "outputs": [],
            "stateMutability": "nonpayable",
            "type": "function"
        },
        {
            "inputs": [
                {
                    "internalType": "bytes4",
                    "name": "interfaceId",
                    "type": "bytes4"
                }
            ],
            "name": "supportsInterface",
            "outputs": [
                {
                    "internalType": "bool",
                    "name": "",
                    "type": "bool"
                }
            ],
            "stateMutability": "view",
            "type": "function"
        },
        {
            "inputs": [
                {
                    "internalType": "address",
                    "name": "newOwner",
                    "type": "address"
                }
            ],
            "name": "transferOwnership",
            "outputs": [],
            "stateMutability": "nonpayable",
            "type": "function"
        },
        {
            "inputs": [
                {
                    "internalType": "uint256",
                    "name": "_asunaId",
                    "type": "uint256"
                },
                {
                    "internalType": "uint256[]",
                    "name": "_accessoryIds",
                    "type": "uint256[]"
                },
                {
                    "internalType": "uint256[]",
                    "name": "_accessoryQuantities",
                    "type": "uint256[]"
                },
                {
                    "internalType": "address",
                    "name": "_asunaHolderAddress",
                    "type": "address"
                }
            ],
            "name": "unequipAccessories",
            "outputs": [],
            "stateMutability": "nonpayable",
            "type": "function"
        }
    ],
    "bytecode": "0x608060405234801561001057600080fd5b5061002d61002261003260201b60201c565b61003a60201b60201c565b6100fe565b600033905090565b60008060009054906101000a900473ffffffffffffffffffffffffffffffffffffffff169050816000806101000a81548173ffffffffffffffffffffffffffffffffffffffff021916908373ffffffffffffffffffffffffffffffffffffffff1602179055508173ffffffffffffffffffffffffffffffffffffffff168173ffffffffffffffffffffffffffffffffffffffff167f8be0079c531659141344cd1fd0a4f28419497f9722a3daafe3b4186f6b6457e060405160405180910390a35050565b6119568061010d6000396000f3fe608060405234801561001057600080fd5b50600436106100b45760003560e01c80638446c9d9116100715780638446c9d9146101775780638da5cb5b14610193578063b6924a46146101b1578063bc197c81146101cf578063f23a6e61146101ff578063f2fde38b1461022f576100b4565b806301ffc9a7146100b95780630868d846146100e95780632a7b4b5a14610105578063715018a614610121578063715873bc1461012b5780637bc44aa61461015b575b600080fd5b6100d360048036038101906100ce919061107c565b61024b565b6040516100e09190611365565b60405180910390f35b61010360048036038101906100fe91906110a5565b6102c5565b005b61011f600480360381019061011a9190610ec9565b61036c565b005b61012961042c565b005b61014560048036038101906101409190611138565b6104b4565b604051610152919061141b565b60405180910390f35b61017560048036038101906101709190611040565b6104d9565b005b610191600480360381019061018c91906110a5565b6105b0565b005b61019b610657565b6040516101a891906112e4565b60405180910390f35b6101b9610680565b6040516101c691906112e4565b60405180910390f35b6101e960048036038101906101e49190610ef2565b6106a6565b6040516101f69190611380565b60405180910390f35b61021960048036038101906102149190610fb1565b6106bb565b6040516102269190611380565b60405180910390f35b61024960048036038101906102449190610ec9565b6106d0565b005b60007f4e2312e0000000000000000000000000000000000000000000000000000000007bffffffffffffffffffffffffffffffffffffffffffffffffffffffff1916827bffffffffffffffffffffffffffffffffffffffffffffffffffffffff191614806102be57506102bd826107c8565b5b9050919050565b3360011515600260008373ffffffffffffffffffffffffffffffffffffffff1673ffffffffffffffffffffffffffffffffffffffff16815260200190815260200160002060009054906101000a900460ff16151514610359576040517f08c379a0000000000000000000000000000000000000000000000000000000008152600401610350906113bb565b60405180910390fd5b61036585858585610832565b5050505050565b610374610a15565b73ffffffffffffffffffffffffffffffffffffffff16610392610657565b73ffffffffffffffffffffffffffffffffffffffff16146103e8576040517f08c379a00000000000000000000000000000000000000000000000000000000081526004016103df906113db565b60405180910390fd5b80600160006101000a81548173ffffffffffffffffffffffffffffffffffffffff021916908373ffffffffffffffffffffffffffffffffffffffff16021790555050565b610434610a15565b73ffffffffffffffffffffffffffffffffffffffff16610452610657565b73ffffffffffffffffffffffffffffffffffffffff16146104a8576040517f08c379a000000000000000000000000000000000000000000000000000000000815260040161049f906113db565b60405180910390fd5b6104b26000610a1d565b565b6003602052816000526040600020602052806000526040600020600091509150505481565b6104e1610a15565b73ffffffffffffffffffffffffffffffffffffffff166104ff610657565b73ffffffffffffffffffffffffffffffffffffffff1614610555576040517f08c379a000000000000000000000000000000000000000000000000000000000815260040161054c906113db565b60405180910390fd5b80600260008473ffffffffffffffffffffffffffffffffffffffff1673ffffffffffffffffffffffffffffffffffffffff16815260200190815260200160002060006101000a81548160ff0219169083151502179055505050565b3360011515600260008373ffffffffffffffffffffffffffffffffffffffff1673ffffffffffffffffffffffffffffffffffffffff16815260200190815260200160002060009054906101000a900460ff16151514610644576040517f08c379a000000000000000000000000000000000000000000000000000000000815260040161063b906113bb565b60405180910390fd5b61065085858585610ae1565b5050505050565b60008060009054906101000a900473ffffffffffffffffffffffffffffffffffffffff16905090565b600160009054906101000a900473ffffffffffffffffffffffffffffffffffffffff1681565b600063bc197c8160e01b905095945050505050565b600063f23a6e6160e01b905095945050505050565b6106d8610a15565b73ffffffffffffffffffffffffffffffffffffffff166106f6610657565b73ffffffffffffffffffffffffffffffffffffffff161461074c576040517f08c379a0000000000000000000000000000000000000000000000000000000008152600401610743906113db565b60405180910390fd5b600073ffffffffffffffffffffffffffffffffffffffff168173ffffffffffffffffffffffffffffffffffffffff1614156107bc576040517f08c379a00000000000000000000000000000000000000000000000000000000081526004016107b39061139b565b60405180910390fd5b6107c581610a1d565b50565b60007f01ffc9a7000000000000000000000000000000000000000000000000000000007bffffffffffffffffffffffffffffffffffffffffffffffffffffffff1916827bffffffffffffffffffffffffffffffffffffffffffffffffffffffff1916149050919050565b60005b83518110156109425760016003600086848151811061087d577f4e487b7100000000000000000000000000000000000000000000000000000000600052603260045260246000fd5b6020026020010151815260200190815260200160002060006001886108a29190611543565b8152602001908152602001600020546108bb9190611543565b600360008684815181106108f8577f4e487b7100000000000000000000000000000000000000000000000000000000600052603260045260246000fd5b60200260200101518152602001908152602001600020600060018861091d9190611543565b815260200190815260200160002081905550808061093a90611681565b915050610835565b50600160009054906101000a900473ffffffffffffffffffffffffffffffffffffffff1673ffffffffffffffffffffffffffffffffffffffff16632eb2c2d6823086866040518563ffffffff1660e01b81526004016109a494939291906112ff565b600060405180830381600087803b1580156109be57600080fd5b505af11580156109d2573d6000803e3d6000fd5b505050507fdb649e82b885d67ff7b1bc7bec4319b65ee0bb3841db8db472dfadb7d1b445208484604051610a07929190611436565b60405180910390a150505050565b600033905090565b60008060009054906101000a900473ffffffffffffffffffffffffffffffffffffffff169050816000806101000a81548173ffffffffffffffffffffffffffffffffffffffff021916908373ffffffffffffffffffffffffffffffffffffffff1602179055508173ffffffffffffffffffffffffffffffffffffffff168173ffffffffffffffffffffffffffffffffffffffff167f8be0079c531659141344cd1fd0a4f28419497f9722a3daafe3b4186f6b6457e060405160405180910390a35050565b60005b8351811015610ca457600060036000868481518110610b2c577f4e487b7100000000000000000000000000000000000000000000000000000000600052603260045260246000fd5b602002602001015181526020019081526020016000206000600188610b519190611543565b81526020019081526020016000205411610ba0576040517f08c379a0000000000000000000000000000000000000000000000000000000008152600401610b97906113fb565b60405180910390fd5b600160036000868481518110610bdf577f4e487b7100000000000000000000000000000000000000000000000000000000600052603260045260246000fd5b602002602001015181526020019081526020016000206000600188610c049190611543565b815260200190815260200160002054610c1d9190611599565b60036000868481518110610c5a577f4e487b7100000000000000000000000000000000000000000000000000000000600052603260045260246000fd5b602002602001015181526020019081526020016000206000600188610c7f9190611543565b8152602001908152602001600020819055508080610c9c90611681565b915050610ae4565b50600160009054906101000a900473ffffffffffffffffffffffffffffffffffffffff1673ffffffffffffffffffffffffffffffffffffffff16632eb2c2d6308386866040518563ffffffff1660e01b8152600401610d0694939291906112ff565b600060405180830381600087803b158015610d2057600080fd5b505af1158015610d34573d6000803e3d6000fd5b505050507f14abf2bba63f508beb550a4f0449d263e6b5b97846b6c692deaf166506ce59ff8484604051610d69929190611436565b60405180910390a150505050565b6000610d8a610d858461148b565b611466565b90508083825260208201905082856020860282011115610da957600080fd5b60005b85811015610dd95781610dbf8882610eb4565b845260208401935060208301925050600181019050610dac565b5050509392505050565b6000610df6610df1846114b7565b611466565b905082815260208101848484011115610e0e57600080fd5b610e19848285611641565b509392505050565b600081359050610e30816118c4565b92915050565b600082601f830112610e4757600080fd5b8135610e57848260208601610d77565b91505092915050565b600081359050610e6f816118db565b92915050565b600081359050610e84816118f2565b92915050565b600082601f830112610e9b57600080fd5b8135610eab848260208601610de3565b91505092915050565b600081359050610ec381611909565b92915050565b600060208284031215610edb57600080fd5b6000610ee984828501610e21565b91505092915050565b600080600080600060a08688031215610f0a57600080fd5b6000610f1888828901610e21565b9550506020610f2988828901610e21565b945050604086013567ffffffffffffffff811115610f4657600080fd5b610f5288828901610e36565b935050606086013567ffffffffffffffff811115610f6f57600080fd5b610f7b88828901610e36565b925050608086013567ffffffffffffffff811115610f9857600080fd5b610fa488828901610e8a565b9150509295509295909350565b600080600080600060a08688031215610fc957600080fd5b6000610fd788828901610e21565b9550506020610fe888828901610e21565b9450506040610ff988828901610eb4565b935050606061100a88828901610eb4565b925050608086013567ffffffffffffffff81111561102757600080fd5b61103388828901610e8a565b9150509295509295909350565b6000806040838503121561105357600080fd5b600061106185828601610e21565b925050602061107285828601610e60565b9150509250929050565b60006020828403121561108e57600080fd5b600061109c84828501610e75565b91505092915050565b600080600080608085870312156110bb57600080fd5b60006110c987828801610eb4565b945050602085013567ffffffffffffffff8111156110e657600080fd5b6110f287828801610e36565b935050604085013567ffffffffffffffff81111561110f57600080fd5b61111b87828801610e36565b925050606061112c87828801610e21565b91505092959194509250565b6000806040838503121561114b57600080fd5b600061115985828601610eb4565b925050602061116a85828601610eb4565b9150509250929050565b600061118083836112c6565b60208301905092915050565b611195816115cd565b82525050565b60006111a6826114f8565b6111b08185611510565b93506111bb836114e8565b8060005b838110156111ec5781516111d38882611174565b97506111de83611503565b9250506001810190506111bf565b5085935050505092915050565b611202816115df565b82525050565b611211816115eb565b82525050565b6000611224602683611532565b915061122f82611739565b604082019050919050565b6000611247604283611521565b915061125282611788565b606082019050919050565b600061126a601d83611532565b9150611275826117fd565b602082019050919050565b600061128d602083611532565b915061129882611826565b602082019050919050565b60006112b0605183611532565b91506112bb8261184f565b606082019050919050565b6112cf81611637565b82525050565b6112de81611637565b82525050565b60006020820190506112f9600083018461118c565b92915050565b600060a082019050611314600083018761118c565b611321602083018661118c565b8181036040830152611333818561119b565b90508181036060830152611347818461119b565b9050818103608083015261135a8161123a565b905095945050505050565b600060208201905061137a60008301846111f9565b92915050565b60006020820190506113956000830184611208565b92915050565b600060208201905081810360008301526113b481611217565b9050919050565b600060208201905081810360008301526113d48161125d565b9050919050565b600060208201905081810360008301526113f481611280565b9050919050565b60006020820190508181036000830152611414816112a3565b9050919050565b600060208201905061143060008301846112d5565b92915050565b600060408201905061144b60008301856112d5565b818103602083015261145d818461119b565b90509392505050565b6000611470611481565b905061147c8282611650565b919050565b6000604051905090565b600067ffffffffffffffff8211156114a6576114a56116f9565b5b602082029050602081019050919050565b600067ffffffffffffffff8211156114d2576114d16116f9565b5b6114db82611728565b9050602081019050919050565b6000819050602082019050919050565b600081519050919050565b6000602082019050919050565b600082825260208201905092915050565b600082825260208201905092915050565b600082825260208201905092915050565b600061154e82611637565b915061155983611637565b9250827fffffffffffffffffffffffffffffffffffffffffffffffffffffffffffffffff0382111561158e5761158d6116ca565b5b828201905092915050565b60006115a482611637565b91506115af83611637565b9250828210156115c2576115c16116ca565b5b828203905092915050565b60006115d882611617565b9050919050565b60008115159050919050565b60007fffffffff0000000000000000000000000000000000000000000000000000000082169050919050565b600073ffffffffffffffffffffffffffffffffffffffff82169050919050565b6000819050919050565b82818337600083830152505050565b61165982611728565b810181811067ffffffffffffffff82111715611678576116776116f9565b5b80604052505050565b600061168c82611637565b91507fffffffffffffffffffffffffffffffffffffffffffffffffffffffffffffffff8214156116bf576116be6116ca565b5b600182019050919050565b7f4e487b7100000000000000000000000000000000000000000000000000000000600052601160045260246000fd5b7f4e487b7100000000000000000000000000000000000000000000000000000000600052604160045260246000fd5b6000601f19601f8301169050919050565b7f4f776e61626c653a206e6577206f776e657220697320746865207a65726f206160008201527f6464726573730000000000000000000000000000000000000000000000000000602082015250565b7f307830303030303030303030303030303030303030303030303030303030303060008201527f303030303030303030303030303030303030303030303030303030303030303060208201527f3030000000000000000000000000000000000000000000000000000000000000604082015250565b7f596f752063616e277420706572666f726d207468697320616374696f6e000000600082015250565b7f4f776e61626c653a2063616c6c6572206973206e6f7420746865206f776e6572600082015250565b7f4163636573736f727920457175697070696e672053797374656d3a207468652060008201527f6173756e61206d75737420626520746865206f776e6572206f6620746865206560208201527f71756970706564206163636573736f7279000000000000000000000000000000604082015250565b6118cd816115cd565b81146118d857600080fd5b50565b6118e4816115df565b81146118ef57600080fd5b50565b6118fb816115eb565b811461190657600080fd5b50565b61191281611637565b811461191d57600080fd5b5056fea26469706673582212207cd36c4bb69735c83b4d2829bed1ee91ad1844532b8026578175f0e362bc28ed64736f6c63430008040033",
    "linkReferences": {},
    "deployedLinkReferences": {}
}