{
    "_format": "hh-sol-artifact-1",
    "contractName": "AsunaAccessory1155",
    "sourceName": "contracts/AsunaAccessory1155.sol",
    "abi": [
        {
            "inputs": [
                {
                    "internalType": "string",
                    "name": "_baseTokenURI",
                    "type": "string"
                },
                {
                    "internalType": "address",
                    "name": "_accessoryHolderAddress",
                    "type": "address"
                }
            ],
            "stateMutability": "nonpayable",
            "type": "constructor"
        },
        {
            "anonymous": false,
            "inputs": [
                {
                    "indexed": true,
                    "internalType": "address",
                    "name": "account",
                    "type": "address"
                },
                {
                    "indexed": true,
                    "internalType": "address",
                    "name": "operator",
                    "type": "address"
                },
                {
                    "indexed": false,
                    "internalType": "bool",
                    "name": "approved",
                    "type": "bool"
                }
            ],
            "name": "ApprovalForAll",
            "type": "event"
        },
        {
            "anonymous": false,
            "inputs": [
                {
                    "indexed": true,
                    "internalType": "address",
                    "name": "previousOwner",
                    "type": "address"
                },
                {
                    "indexed": true,
                    "internalType": "address",
                    "name": "newOwner",
                    "type": "address"
                }
            ],
            "name": "OwnershipTransferred",
            "type": "event"
        },
        {
            "anonymous": false,
            "inputs": [
                {
                    "indexed": true,
                    "internalType": "address",
                    "name": "operator",
                    "type": "address"
                },
                {
                    "indexed": true,
                    "internalType": "address",
                    "name": "from",
                    "type": "address"
                },
                {
                    "indexed": true,
                    "internalType": "address",
                    "name": "to",
                    "type": "address"
                },
                {
                    "indexed": false,
                    "internalType": "uint256[]",
                    "name": "ids",
                    "type": "uint256[]"
                },
                {
                    "indexed": false,
                    "internalType": "uint256[]",
                    "name": "values",
                    "type": "uint256[]"
                }
            ],
            "name": "TransferBatch",
            "type": "event"
        },
        {
            "anonymous": false,
            "inputs": [
                {
                    "indexed": true,
                    "internalType": "address",
                    "name": "operator",
                    "type": "address"
                },
                {
                    "indexed": true,
                    "internalType": "address",
                    "name": "from",
                    "type": "address"
                },
                {
                    "indexed": true,
                    "internalType": "address",
                    "name": "to",
                    "type": "address"
                },
                {
                    "indexed": false,
                    "internalType": "uint256",
                    "name": "id",
                    "type": "uint256"
                },
                {
                    "indexed": false,
                    "internalType": "uint256",
                    "name": "value",
                    "type": "uint256"
                }
            ],
            "name": "TransferSingle",
            "type": "event"
        },
        {
            "anonymous": false,
            "inputs": [
                {
                    "indexed": false,
                    "internalType": "string",
                    "name": "value",
                    "type": "string"
                },
                {
                    "indexed": true,
                    "internalType": "uint256",
                    "name": "id",
                    "type": "uint256"
                }
            ],
            "name": "URI",
            "type": "event"
        },
        {
            "inputs": [
                {
                    "internalType": "address",
                    "name": "account",
                    "type": "address"
                },
                {
                    "internalType": "uint256",
                    "name": "id",
                    "type": "uint256"
                }
            ],
            "name": "balanceOf",
            "outputs": [
                {
                    "internalType": "uint256",
                    "name": "",
                    "type": "uint256"
                }
            ],
            "stateMutability": "view",
            "type": "function"
        },
        {
            "inputs": [
                {
                    "internalType": "address[]",
                    "name": "accounts",
                    "type": "address[]"
                },
                {
                    "internalType": "uint256[]",
                    "name": "ids",
                    "type": "uint256[]"
                }
            ],
            "name": "balanceOfBatch",
            "outputs": [
                {
                    "internalType": "uint256[]",
                    "name": "",
                    "type": "uint256[]"
                }
            ],
            "stateMutability": "view",
            "type": "function"
        },
        {
            "inputs": [],
            "name": "baseTokenURI",
            "outputs": [
                {
                    "internalType": "string",
                    "name": "",
                    "type": "string"
                }
            ],
            "stateMutability": "view",
            "type": "function"
        },
        {
            "inputs": [
                {
                    "internalType": "address",
                    "name": "proxyAddress",
                    "type": "address"
                }
            ],
            "name": "flipProxyState",
            "outputs": [],
            "stateMutability": "nonpayable",
            "type": "function"
        },
        {
            "inputs": [
                {
                    "internalType": "address",
                    "name": "owner",
                    "type": "address"
                },
                {
                    "internalType": "address",
                    "name": "operator",
                    "type": "address"
                }
            ],
            "name": "isApprovedForAll",
            "outputs": [
                {
                    "internalType": "bool",
                    "name": "",
                    "type": "bool"
                }
            ],
            "stateMutability": "view",
            "type": "function"
        },
        {
            "inputs": [
                {
                    "internalType": "address",
                    "name": "_receiver",
                    "type": "address"
                },
                {
                    "internalType": "uint256[]",
                    "name": "_accessoryIDs",
                    "type": "uint256[]"
                },
                {
                    "internalType": "uint256[]",
                    "name": "_amounts",
                    "type": "uint256[]"
                }
            ],
            "name": "mintBatchNFT",
            "outputs": [],
            "stateMutability": "nonpayable",
            "type": "function"
        },
        {
            "inputs": [
                {
                    "internalType": "address",
                    "name": "_receiver",
                    "type": "address"
                },
                {
                    "internalType": "uint256",
                    "name": "_accessoryID",
                    "type": "uint256"
                },
                {
                    "internalType": "uint256",
                    "name": "_amount",
                    "type": "uint256"
                }
            ],
            "name": "mintNFT",
            "outputs": [],
            "stateMutability": "nonpayable",
            "type": "function"
        },
        {
            "inputs": [],
            "name": "owner",
            "outputs": [
                {
                    "internalType": "address",
                    "name": "",
                    "type": "address"
                }
            ],
            "stateMutability": "view",
            "type": "function"
        },
        {
            "inputs": [
                {
                    "internalType": "address",
                    "name": "",
                    "type": "address"
                }
            ],
            "name": "proxyToApprove",
            "outputs": [
                {
                    "internalType": "bool",
                    "name": "",
                    "type": "bool"
                }
            ],
            "stateMutability": "view",
            "type": "function"
        },
        {
            "inputs": [],
            "name": "renounceOwnership",
            "outputs": [],
            "stateMutability": "nonpayable",
            "type": "function"
        },
        {
            "inputs": [
                {
                    "internalType": "address",
                    "name": "from",
                    "type": "address"
                },
                {
                    "internalType": "address",
                    "name": "to",
                    "type": "address"
                },
                {
                    "internalType": "uint256[]",
                    "name": "ids",
                    "type": "uint256[]"
                },
                {
                    "internalType": "uint256[]",
                    "name": "amounts",
                    "type": "uint256[]"
                },
                {
                    "internalType": "bytes",
                    "name": "data",
                    "type": "bytes"
                }
            ],
            "name": "safeBatchTransferFrom",
            "outputs": [],
            "stateMutability": "nonpayable",
            "type": "function"
        },
        {
            "inputs": [
                {
                    "internalType": "address",
                    "name": "from",
                    "type": "address"
                },
                {
                    "internalType": "address",
                    "name": "to",
                    "type": "address"
                },
                {
                    "internalType": "uint256",
                    "name": "id",
                    "type": "uint256"
                },
                {
                    "internalType": "uint256",
                    "name": "amount",
                    "type": "uint256"
                },
                {
                    "internalType": "bytes",
                    "name": "data",
                    "type": "bytes"
                }
            ],
            "name": "safeTransferFrom",
            "outputs": [],
            "stateMutability": "nonpayable",
            "type": "function"
        },
        {
            "inputs": [
                {
                    "internalType": "address",
                    "name": "operator",
                    "type": "address"
                },
                {
                    "internalType": "bool",
                    "name": "approved",
                    "type": "bool"
                }
            ],
            "name": "setApprovalForAll",
            "outputs": [],
            "stateMutability": "nonpayable",
            "type": "function"
        },
        {
            "inputs": [
                {
                    "internalType": "string",
                    "name": "baseURI",
                    "type": "string"
                }
            ],
            "name": "setBaseURI",
            "outputs": [],
            "stateMutability": "nonpayable",
            "type": "function"
        },
        {
            "inputs": [
                {
                    "internalType": "bytes4",
                    "name": "interfaceId",
                    "type": "bytes4"
                }
            ],
            "name": "supportsInterface",
            "outputs": [
                {
                    "internalType": "bool",
                    "name": "",
                    "type": "bool"
                }
            ],
            "stateMutability": "view",
            "type": "function"
        },
        {
            "inputs": [
                {
                    "internalType": "address",
                    "name": "newOwner",
                    "type": "address"
                }
            ],
            "name": "transferOwnership",
            "outputs": [],
            "stateMutability": "nonpayable",
            "type": "function"
        },
        {
            "inputs": [
                {
                    "internalType": "uint256",
                    "name": "_tokenId",
                    "type": "uint256"
                }
            ],
            "name": "uri",
            "outputs": [
                {
                    "internalType": "string",
                    "name": "",
                    "type": "string"
                }
            ],
            "stateMutability": "view",
            "type": "function"
        },
        {
            "stateMutability": "payable",
            "type": "receive"
        }
    ],
    "bytecode": "0x60806040523480156200001157600080fd5b5060405162003fc538038062003fc58339818101604052810190620000379190620002ed565b816200004981620000ca60201b60201c565b506200006a6200005e620000e660201b60201c565b620000ee60201b60201c565b6001600460008373ffffffffffffffffffffffffffffffffffffffff1673ffffffffffffffffffffffffffffffffffffffff16815260200190815260200160002060006101000a81548160ff021916908315150217905550505062000505565b8060029080519060200190620000e2929190620001b4565b5050565b600033905090565b6000600360009054906101000a900473ffffffffffffffffffffffffffffffffffffffff16905081600360006101000a81548173ffffffffffffffffffffffffffffffffffffffff021916908373ffffffffffffffffffffffffffffffffffffffff1602179055508173ffffffffffffffffffffffffffffffffffffffff168173ffffffffffffffffffffffffffffffffffffffff167f8be0079c531659141344cd1fd0a4f28419497f9722a3daafe3b4186f6b6457e060405160405180910390a35050565b828054620001c29062000410565b90600052602060002090601f016020900481019282620001e6576000855562000232565b82601f106200020157805160ff191683800117855562000232565b8280016001018555821562000232579182015b828111156200023157825182559160200191906001019062000214565b5b50905062000241919062000245565b5090565b5b808211156200026057600081600090555060010162000246565b5090565b60006200027b620002758462000370565b62000347565b9050828152602081018484840111156200029457600080fd5b620002a1848285620003da565b509392505050565b600081519050620002ba81620004eb565b92915050565b600082601f830112620002d257600080fd5b8151620002e484826020860162000264565b91505092915050565b600080604083850312156200030157600080fd5b600083015167ffffffffffffffff8111156200031c57600080fd5b6200032a85828601620002c0565b92505060206200033d85828601620002a9565b9150509250929050565b60006200035362000366565b905062000361828262000446565b919050565b6000604051905090565b600067ffffffffffffffff8211156200038e576200038d620004ab565b5b6200039982620004da565b9050602081019050919050565b6000620003b382620003ba565b9050919050565b600073ffffffffffffffffffffffffffffffffffffffff82169050919050565b60005b83811015620003fa578082015181840152602081019050620003dd565b838111156200040a576000848401525b50505050565b600060028204905060018216806200042957607f821691505b6020821081141562000440576200043f6200047c565b5b50919050565b6200045182620004da565b810181811067ffffffffffffffff82111715620004735762000472620004ab565b5b80604052505050565b7f4e487b7100000000000000000000000000000000000000000000000000000000600052602260045260246000fd5b7f4e487b7100000000000000000000000000000000000000000000000000000000600052604160045260246000fd5b6000601f19601f8301169050919050565b620004f681620003a6565b81146200050257600080fd5b50565b613ab080620005156000396000f3fe6080604052600436106101015760003560e01c8063734a81c511610095578063d547cfb711610064578063d547cfb71461034d578063e985e9c514610378578063f242432a146103b5578063f2fde38b146103de578063f73c814b1461040757610108565b8063734a81c5146102935780638da5cb5b146102bc578063a22cb465146102e7578063cb65340d1461031057610108565b80634e1273f4116100d15780634e1273f4146101ed57806355f804b31461022a5780635a9d10a214610253578063715018a61461027c57610108565b8062fdd58e1461010d57806301ffc9a71461014a5780630e89341c146101875780632eb2c2d6146101c457610108565b3661010857005b600080fd5b34801561011957600080fd5b50610134600480360381019061012f9190612828565b610430565b60405161014191906130ad565b60405180910390f35b34801561015657600080fd5b50610171600480360381019061016c919061291f565b6104f9565b60405161017e9190612ed0565b60405180910390f35b34801561019357600080fd5b506101ae60048036038101906101a991906129b2565b6105db565b6040516101bb9190612eeb565b60405180910390f35b3480156101d057600080fd5b506101eb60048036038101906101e6919061261f565b61060f565b005b3480156101f957600080fd5b50610214600480360381019061020f91906128b3565b6106b0565b6040516102219190612e77565b60405180910390f35b34801561023657600080fd5b50610251600480360381019061024c9190612971565b610861565b005b34801561025f57600080fd5b5061027a60048036038101906102759190612864565b6108f7565b005b34801561028857600080fd5b50610291610993565b005b34801561029f57600080fd5b506102ba60048036038101906102b5919061276d565b610a1b565b005b3480156102c857600080fd5b506102d1610ab7565b6040516102de9190612d9a565b60405180910390f35b3480156102f357600080fd5b5061030e600480360381019061030991906127ec565b610ae1565b005b34801561031c57600080fd5b50610337600480360381019061033291906125ba565b610af7565b6040516103449190612ed0565b60405180910390f35b34801561035957600080fd5b50610362610b17565b60405161036f9190612eeb565b60405180910390f35b34801561038457600080fd5b5061039f600480360381019061039a91906125e3565b610ba5565b6040516103ac9190612ed0565b60405180910390f35b3480156103c157600080fd5b506103dc60048036038101906103d791906126de565b610c15565b005b3480156103ea57600080fd5b50610405600480360381019061040091906125ba565b610cb6565b005b34801561041357600080fd5b5061042e600480360381019061042991906125ba565b610dae565b005b60008073ffffffffffffffffffffffffffffffffffffffff168373ffffffffffffffffffffffffffffffffffffffff1614156104a1576040517f08c379a000000000000000000000000000000000000000000000000000000000815260040161049890612f4d565b60405180910390fd5b60008083815260200190815260200160002060008473ffffffffffffffffffffffffffffffffffffffff1673ffffffffffffffffffffffffffffffffffffffff16815260200190815260200160002054905092915050565b60007fd9b67a26000000000000000000000000000000000000000000000000000000007bffffffffffffffffffffffffffffffffffffffffffffffffffffffff1916827bffffffffffffffffffffffffffffffffffffffffffffffffffffffff191614806105c457507f0e89341c000000000000000000000000000000000000000000000000000000007bffffffffffffffffffffffffffffffffffffffffffffffffffffffff1916827bffffffffffffffffffffffffffffffffffffffffffffffffffffffff1916145b806105d457506105d382610ed1565b5b9050919050565b606060056105e883610f3b565b6040516020016105f9929190612d76565b6040516020818303038152906040529050919050565b6106176110e8565b73ffffffffffffffffffffffffffffffffffffffff168573ffffffffffffffffffffffffffffffffffffffff16148061065d575061065c856106576110e8565b610ba5565b5b61069c576040517f08c379a000000000000000000000000000000000000000000000000000000000815260040161069390612fcd565b60405180910390fd5b6106a985858585856110f0565b5050505050565b606081518351146106f6576040517f08c379a00000000000000000000000000000000000000000000000000000000081526004016106ed9061304d565b60405180910390fd5b6000835167ffffffffffffffff811115610739577f4e487b7100000000000000000000000000000000000000000000000000000000600052604160045260246000fd5b6040519080825280602002602001820160405280156107675781602001602082028036833780820191505090505b50905060005b8451811015610856576108008582815181106107b2577f4e487b7100000000000000000000000000000000000000000000000000000000600052603260045260246000fd5b60200260200101518583815181106107f3577f4e487b7100000000000000000000000000000000000000000000000000000000600052603260045260246000fd5b6020026020010151610430565b828281518110610839577f4e487b7100000000000000000000000000000000000000000000000000000000600052603260045260246000fd5b6020026020010181815250508061084f90613435565b905061076d565b508091505092915050565b6108696110e8565b73ffffffffffffffffffffffffffffffffffffffff16610887610ab7565b73ffffffffffffffffffffffffffffffffffffffff16146108dd576040517f08c379a00000000000000000000000000000000000000000000000000000000081526004016108d49061300d565b60405180910390fd5b80600590805190602001906108f39291906122b2565b5050565b6108ff6110e8565b73ffffffffffffffffffffffffffffffffffffffff1661091d610ab7565b73ffffffffffffffffffffffffffffffffffffffff1614610973576040517f08c379a000000000000000000000000000000000000000000000000000000000815260040161096a9061300d565b60405180910390fd5b61098e8383836040518060200160405280600081525061145e565b505050565b61099b6110e8565b73ffffffffffffffffffffffffffffffffffffffff166109b9610ab7565b73ffffffffffffffffffffffffffffffffffffffff1614610a0f576040517f08c379a0000000000000000000000000000000000000000000000000000000008152600401610a069061300d565b60405180910390fd5b610a19600061160f565b565b610a236110e8565b73ffffffffffffffffffffffffffffffffffffffff16610a41610ab7565b73ffffffffffffffffffffffffffffffffffffffff1614610a97576040517f08c379a0000000000000000000000000000000000000000000000000000000008152600401610a8e9061300d565b60405180910390fd5b610ab2838383604051806020016040528060008152506116d5565b505050565b6000600360009054906101000a900473ffffffffffffffffffffffffffffffffffffffff16905090565b610af3610aec6110e8565b838361194e565b5050565b60046020528060005260406000206000915054906101000a900460ff1681565b60058054610b24906133d2565b80601f0160208091040260200160405190810160405280929190818152602001828054610b50906133d2565b8015610b9d5780601f10610b7257610100808354040283529160200191610b9d565b820191906000526020600020905b815481529060010190602001808311610b8057829003601f168201915b505050505081565b6000600460008373ffffffffffffffffffffffffffffffffffffffff1673ffffffffffffffffffffffffffffffffffffffff16815260200190815260200160002060009054906101000a900460ff1615610c025760019050610c0f565b610c0c8383611abb565b90505b92915050565b610c1d6110e8565b73ffffffffffffffffffffffffffffffffffffffff168573ffffffffffffffffffffffffffffffffffffffff161480610c635750610c6285610c5d6110e8565b610ba5565b5b610ca2576040517f08c379a0000000000000000000000000000000000000000000000000000000008152600401610c9990612f8d565b60405180910390fd5b610caf8585858585611b4f565b5050505050565b610cbe6110e8565b73ffffffffffffffffffffffffffffffffffffffff16610cdc610ab7565b73ffffffffffffffffffffffffffffffffffffffff1614610d32576040517f08c379a0000000000000000000000000000000000000000000000000000000008152600401610d299061300d565b60405180910390fd5b600073ffffffffffffffffffffffffffffffffffffffff168173ffffffffffffffffffffffffffffffffffffffff161415610da2576040517f08c379a0000000000000000000000000000000000000000000000000000000008152600401610d9990612f6d565b60405180910390fd5b610dab8161160f565b50565b610db66110e8565b73ffffffffffffffffffffffffffffffffffffffff16610dd4610ab7565b73ffffffffffffffffffffffffffffffffffffffff1614610e2a576040517f08c379a0000000000000000000000000000000000000000000000000000000008152600401610e219061300d565b60405180910390fd5b600460008273ffffffffffffffffffffffffffffffffffffffff1673ffffffffffffffffffffffffffffffffffffffff16815260200190815260200160002060009054906101000a900460ff1615600460008373ffffffffffffffffffffffffffffffffffffffff1673ffffffffffffffffffffffffffffffffffffffff16815260200190815260200160002060006101000a81548160ff02191690831515021790555050565b60007f01ffc9a7000000000000000000000000000000000000000000000000000000007bffffffffffffffffffffffffffffffffffffffffffffffffffffffff1916827bffffffffffffffffffffffffffffffffffffffffffffffffffffffff1916149050919050565b60606000821415610f83576040518060400160405280600181526020017f300000000000000000000000000000000000000000000000000000000000000081525090506110e3565b600082905060005b60008214610fb5578080610f9e90613435565b915050600a82610fae91906132b7565b9150610f8b565b60008167ffffffffffffffff811115610ff7577f4e487b7100000000000000000000000000000000000000000000000000000000600052604160045260246000fd5b6040519080825280601f01601f1916602001820160405280156110295781602001600182028036833780820191505090505b5090505b600085146110dc5760018261104291906132e8565b9150600a85611051919061347e565b603061105d9190613261565b60f81b818381518110611099577f4e487b7100000000000000000000000000000000000000000000000000000000600052603260045260246000fd5b60200101907effffffffffffffffffffffffffffffffffffffffffffffffffffffffffffff1916908160001a905350600a856110d591906132b7565b945061102d565b8093505050505b919050565b600033905090565b8151835114611134576040517f08c379a000000000000000000000000000000000000000000000000000000000815260040161112b9061306d565b60405180910390fd5b600073ffffffffffffffffffffffffffffffffffffffff168473ffffffffffffffffffffffffffffffffffffffff1614156111a4576040517f08c379a000000000000000000000000000000000000000000000000000000000815260040161119b90612fad565b60405180910390fd5b60006111ae6110e8565b90506111be818787878787611deb565b60005b84518110156113bb576000858281518110611205577f4e487b7100000000000000000000000000000000000000000000000000000000600052603260045260246000fd5b60200260200101519050600085838151811061124a577f4e487b7100000000000000000000000000000000000000000000000000000000600052603260045260246000fd5b60200260200101519050600080600084815260200190815260200160002060008b73ffffffffffffffffffffffffffffffffffffffff1673ffffffffffffffffffffffffffffffffffffffff168152602001908152602001600020549050818110156112eb576040517f08c379a00000000000000000000000000000000000000000000000000000000081526004016112e290612fed565b60405180910390fd5b81810360008085815260200190815260200160002060008c73ffffffffffffffffffffffffffffffffffffffff1673ffffffffffffffffffffffffffffffffffffffff168152602001908152602001600020819055508160008085815260200190815260200160002060008b73ffffffffffffffffffffffffffffffffffffffff1673ffffffffffffffffffffffffffffffffffffffff16815260200190815260200160002060008282546113a09190613261565b92505081905550505050806113b490613435565b90506111c1565b508473ffffffffffffffffffffffffffffffffffffffff168673ffffffffffffffffffffffffffffffffffffffff168273ffffffffffffffffffffffffffffffffffffffff167f4a39dc06d4c0dbc64b70af90fd698a233a518aa5d07e595d983b8c0526c8f7fb8787604051611432929190612e99565b60405180910390a4611448818787878787611df3565b611456818787878787611dfb565b505050505050565b600073ffffffffffffffffffffffffffffffffffffffff168473ffffffffffffffffffffffffffffffffffffffff1614156114ce576040517f08c379a00000000000000000000000000000000000000000000000000000000081526004016114c59061308d565b60405180910390fd5b60006114d86110e8565b905060006114e585611fe2565b905060006114f285611fe2565b905061150383600089858589611deb565b8460008088815260200190815260200160002060008973ffffffffffffffffffffffffffffffffffffffff1673ffffffffffffffffffffffffffffffffffffffff16815260200190815260200160002060008282546115629190613261565b925050819055508673ffffffffffffffffffffffffffffffffffffffff16600073ffffffffffffffffffffffffffffffffffffffff168473ffffffffffffffffffffffffffffffffffffffff167fc3d58168c5ae7397731d063d5bbf3d657854427343f4c083240f7aacaa2d0f6289896040516115e09291906130c8565b60405180910390a46115f783600089858589611df3565b611606836000898989896120a8565b50505050505050565b6000600360009054906101000a900473ffffffffffffffffffffffffffffffffffffffff16905081600360006101000a81548173ffffffffffffffffffffffffffffffffffffffff021916908373ffffffffffffffffffffffffffffffffffffffff1602179055508173ffffffffffffffffffffffffffffffffffffffff168173ffffffffffffffffffffffffffffffffffffffff167f8be0079c531659141344cd1fd0a4f28419497f9722a3daafe3b4186f6b6457e060405160405180910390a35050565b600073ffffffffffffffffffffffffffffffffffffffff168473ffffffffffffffffffffffffffffffffffffffff161415611745576040517f08c379a000000000000000000000000000000000000000000000000000000000815260040161173c9061308d565b60405180910390fd5b8151835114611789576040517f08c379a00000000000000000000000000000000000000000000000000000000081526004016117809061306d565b60405180910390fd5b60006117936110e8565b90506117a481600087878787611deb565b60005b84518110156118a9578381815181106117e9577f4e487b7100000000000000000000000000000000000000000000000000000000600052603260045260246000fd5b602002602001015160008087848151811061182d577f4e487b7100000000000000000000000000000000000000000000000000000000600052603260045260246000fd5b6020026020010151815260200190815260200160002060008873ffffffffffffffffffffffffffffffffffffffff1673ffffffffffffffffffffffffffffffffffffffff168152602001908152602001600020600082825461188f9190613261565b9250508190555080806118a190613435565b9150506117a7565b508473ffffffffffffffffffffffffffffffffffffffff16600073ffffffffffffffffffffffffffffffffffffffff168273ffffffffffffffffffffffffffffffffffffffff167f4a39dc06d4c0dbc64b70af90fd698a233a518aa5d07e595d983b8c0526c8f7fb8787604051611921929190612e99565b60405180910390a461193881600087878787611df3565b61194781600087878787611dfb565b5050505050565b8173ffffffffffffffffffffffffffffffffffffffff168373ffffffffffffffffffffffffffffffffffffffff1614156119bd576040517f08c379a00000000000000000000000000000000000000000000000000000000081526004016119b49061302d565b60405180910390fd5b80600160008573ffffffffffffffffffffffffffffffffffffffff1673ffffffffffffffffffffffffffffffffffffffff16815260200190815260200160002060008473ffffffffffffffffffffffffffffffffffffffff1673ffffffffffffffffffffffffffffffffffffffff16815260200190815260200160002060006101000a81548160ff0219169083151502179055508173ffffffffffffffffffffffffffffffffffffffff168373ffffffffffffffffffffffffffffffffffffffff167f17307eab39ab6107e8899845ad3d59bd9653f200f220920489ca2b5937696c3183604051611aae9190612ed0565b60405180910390a3505050565b6000600160008473ffffffffffffffffffffffffffffffffffffffff1673ffffffffffffffffffffffffffffffffffffffff16815260200190815260200160002060008373ffffffffffffffffffffffffffffffffffffffff1673ffffffffffffffffffffffffffffffffffffffff16815260200190815260200160002060009054906101000a900460ff16905092915050565b600073ffffffffffffffffffffffffffffffffffffffff168473ffffffffffffffffffffffffffffffffffffffff161415611bbf576040517f08c379a0000000000000000000000000000000000000000000000000000000008152600401611bb690612fad565b60405180910390fd5b6000611bc96110e8565b90506000611bd685611fe2565b90506000611be385611fe2565b9050611bf3838989858589611deb565b600080600088815260200190815260200160002060008a73ffffffffffffffffffffffffffffffffffffffff1673ffffffffffffffffffffffffffffffffffffffff16815260200190815260200160002054905085811015611c8a576040517f08c379a0000000000000000000000000000000000000000000000000000000008152600401611c8190612fed565b60405180910390fd5b85810360008089815260200190815260200160002060008b73ffffffffffffffffffffffffffffffffffffffff1673ffffffffffffffffffffffffffffffffffffffff168152602001908152602001600020819055508560008089815260200190815260200160002060008a73ffffffffffffffffffffffffffffffffffffffff1673ffffffffffffffffffffffffffffffffffffffff1681526020019081526020016000206000828254611d3f9190613261565b925050819055508773ffffffffffffffffffffffffffffffffffffffff168973ffffffffffffffffffffffffffffffffffffffff168573ffffffffffffffffffffffffffffffffffffffff167fc3d58168c5ae7397731d063d5bbf3d657854427343f4c083240f7aacaa2d0f628a8a604051611dbc9291906130c8565b60405180910390a4611dd2848a8a86868a611df3565b611de0848a8a8a8a8a6120a8565b505050505050505050565b505050505050565b505050505050565b611e1a8473ffffffffffffffffffffffffffffffffffffffff1661228f565b15611fda578373ffffffffffffffffffffffffffffffffffffffff1663bc197c8187878686866040518663ffffffff1660e01b8152600401611e60959493929190612db5565b602060405180830381600087803b158015611e7a57600080fd5b505af1925050508015611eab57506040513d601f19601f82011682018060405250810190611ea89190612948565b60015b611f5157611eb761356b565b806308c379a01415611f145750611ecc613988565b80611ed75750611f16565b806040517f08c379a0000000000000000000000000000000000000000000000000000000008152600401611f0b9190612eeb565b60405180910390fd5b505b6040517f08c379a0000000000000000000000000000000000000000000000000000000008152600401611f4890612f0d565b60405180910390fd5b63bc197c8160e01b7bffffffffffffffffffffffffffffffffffffffffffffffffffffffff1916817bffffffffffffffffffffffffffffffffffffffffffffffffffffffff191614611fd8576040517f08c379a0000000000000000000000000000000000000000000000000000000008152600401611fcf90612f2d565b60405180910390fd5b505b505050505050565b60606000600167ffffffffffffffff811115612027577f4e487b7100000000000000000000000000000000000000000000000000000000600052604160045260246000fd5b6040519080825280602002602001820160405280156120555781602001602082028036833780820191505090505b5090508281600081518110612093577f4e487b7100000000000000000000000000000000000000000000000000000000600052603260045260246000fd5b60200260200101818152505080915050919050565b6120c78473ffffffffffffffffffffffffffffffffffffffff1661228f565b15612287578373ffffffffffffffffffffffffffffffffffffffff1663f23a6e6187878686866040518663ffffffff1660e01b815260040161210d959493929190612e1d565b602060405180830381600087803b15801561212757600080fd5b505af192505050801561215857506040513d601f19601f820116820180604052508101906121559190612948565b60015b6121fe5761216461356b565b806308c379a014156121c15750612179613988565b8061218457506121c3565b806040517f08c379a00000000000000000000000000000000000000000000000000000000081526004016121b89190612eeb565b60405180910390fd5b505b6040517f08c379a00000000000000000000000000000000000000000000000000000000081526004016121f590612f0d565b60405180910390fd5b63f23a6e6160e01b7bffffffffffffffffffffffffffffffffffffffffffffffffffffffff1916817bffffffffffffffffffffffffffffffffffffffffffffffffffffffff191614612285576040517f08c379a000000000000000000000000000000000000000000000000000000000815260040161227c90612f2d565b60405180910390fd5b505b505050505050565b6000808273ffffffffffffffffffffffffffffffffffffffff163b119050919050565b8280546122be906133d2565b90600052602060002090601f0160209004810192826122e05760008555612327565b82601f106122f957805160ff1916838001178555612327565b82800160010185558215612327579182015b8281111561232657825182559160200191906001019061230b565b5b5090506123349190612338565b5090565b5b80821115612351576000816000905550600101612339565b5090565b600061236861236384613116565b6130f1565b9050808382526020820190508285602086028201111561238757600080fd5b60005b858110156123b7578161239d88826124a9565b84526020840193506020830192505060018101905061238a565b5050509392505050565b60006123d46123cf84613142565b6130f1565b905080838252602082019050828560208602820111156123f357600080fd5b60005b85811015612423578161240988826125a5565b8452602084019350602083019250506001810190506123f6565b5050509392505050565b600061244061243b8461316e565b6130f1565b90508281526020810184848401111561245857600080fd5b612463848285613390565b509392505050565b600061247e6124798461319f565b6130f1565b90508281526020810184848401111561249657600080fd5b6124a1848285613390565b509392505050565b6000813590506124b881613a1e565b92915050565b600082601f8301126124cf57600080fd5b81356124df848260208601612355565b91505092915050565b600082601f8301126124f957600080fd5b81356125098482602086016123c1565b91505092915050565b60008135905061252181613a35565b92915050565b60008135905061253681613a4c565b92915050565b60008151905061254b81613a4c565b92915050565b600082601f83011261256257600080fd5b813561257284826020860161242d565b91505092915050565b600082601f83011261258c57600080fd5b813561259c84826020860161246b565b91505092915050565b6000813590506125b481613a63565b92915050565b6000602082840312156125cc57600080fd5b60006125da848285016124a9565b91505092915050565b600080604083850312156125f657600080fd5b6000612604858286016124a9565b9250506020612615858286016124a9565b9150509250929050565b600080600080600060a0868803121561263757600080fd5b6000612645888289016124a9565b9550506020612656888289016124a9565b945050604086013567ffffffffffffffff81111561267357600080fd5b61267f888289016124e8565b935050606086013567ffffffffffffffff81111561269c57600080fd5b6126a8888289016124e8565b925050608086013567ffffffffffffffff8111156126c557600080fd5b6126d188828901612551565b9150509295509295909350565b600080600080600060a086880312156126f657600080fd5b6000612704888289016124a9565b9550506020612715888289016124a9565b9450506040612726888289016125a5565b9350506060612737888289016125a5565b925050608086013567ffffffffffffffff81111561275457600080fd5b61276088828901612551565b9150509295509295909350565b60008060006060848603121561278257600080fd5b6000612790868287016124a9565b935050602084013567ffffffffffffffff8111156127ad57600080fd5b6127b9868287016124e8565b925050604084013567ffffffffffffffff8111156127d657600080fd5b6127e2868287016124e8565b9150509250925092565b600080604083850312156127ff57600080fd5b600061280d858286016124a9565b925050602061281e85828601612512565b9150509250929050565b6000806040838503121561283b57600080fd5b6000612849858286016124a9565b925050602061285a858286016125a5565b9150509250929050565b60008060006060848603121561287957600080fd5b6000612887868287016124a9565b9350506020612898868287016125a5565b92505060406128a9868287016125a5565b9150509250925092565b600080604083850312156128c657600080fd5b600083013567ffffffffffffffff8111156128e057600080fd5b6128ec858286016124be565b925050602083013567ffffffffffffffff81111561290957600080fd5b612915858286016124e8565b9150509250929050565b60006020828403121561293157600080fd5b600061293f84828501612527565b91505092915050565b60006020828403121561295a57600080fd5b60006129688482850161253c565b91505092915050565b60006020828403121561298357600080fd5b600082013567ffffffffffffffff81111561299d57600080fd5b6129a98482850161257b565b91505092915050565b6000602082840312156129c457600080fd5b60006129d2848285016125a5565b91505092915050565b60006129e78383612d58565b60208301905092915050565b6129fc8161331c565b82525050565b6000612a0d826131f5565b612a178185613223565b9350612a22836131d0565b8060005b83811015612a53578151612a3a88826129db565b9750612a4583613216565b925050600181019050612a26565b5085935050505092915050565b612a698161332e565b82525050565b6000612a7a82613200565b612a848185613234565b9350612a9481856020860161339f565b612a9d8161358d565b840191505092915050565b6000612ab38261320b565b612abd8185613245565b9350612acd81856020860161339f565b612ad68161358d565b840191505092915050565b6000612aec8261320b565b612af68185613256565b9350612b0681856020860161339f565b80840191505092915050565b60008154612b1f816133d2565b612b298186613256565b94506001821660008114612b445760018114612b5557612b88565b60ff19831686528186019350612b88565b612b5e856131e0565b60005b83811015612b8057815481890152600182019150602081019050612b61565b838801955050505b50505092915050565b6000612b9e603483613245565b9150612ba9826135ab565b604082019050919050565b6000612bc1602883613245565b9150612bcc826135fa565b604082019050919050565b6000612be4602b83613245565b9150612bef82613649565b604082019050919050565b6000612c07602683613245565b9150612c1282613698565b604082019050919050565b6000612c2a602983613245565b9150612c35826136e7565b604082019050919050565b6000612c4d602583613245565b9150612c5882613736565b604082019050919050565b6000612c70603283613245565b9150612c7b82613785565b604082019050919050565b6000612c93602a83613245565b9150612c9e826137d4565b604082019050919050565b6000612cb6602083613245565b9150612cc182613823565b602082019050919050565b6000612cd9602983613245565b9150612ce48261384c565b604082019050919050565b6000612cfc602983613245565b9150612d078261389b565b604082019050919050565b6000612d1f602883613245565b9150612d2a826138ea565b604082019050919050565b6000612d42602183613245565b9150612d4d82613939565b604082019050919050565b612d6181613386565b82525050565b612d7081613386565b82525050565b6000612d828285612b12565b9150612d8e8284612ae1565b91508190509392505050565b6000602082019050612daf60008301846129f3565b92915050565b600060a082019050612dca60008301886129f3565b612dd760208301876129f3565b8181036040830152612de98186612a02565b90508181036060830152612dfd8185612a02565b90508181036080830152612e118184612a6f565b90509695505050505050565b600060a082019050612e3260008301886129f3565b612e3f60208301876129f3565b612e4c6040830186612d67565b612e596060830185612d67565b8181036080830152612e6b8184612a6f565b90509695505050505050565b60006020820190508181036000830152612e918184612a02565b905092915050565b60006040820190508181036000830152612eb38185612a02565b90508181036020830152612ec78184612a02565b90509392505050565b6000602082019050612ee56000830184612a60565b92915050565b60006020820190508181036000830152612f058184612aa8565b905092915050565b60006020820190508181036000830152612f2681612b91565b9050919050565b60006020820190508181036000830152612f4681612bb4565b9050919050565b60006020820190508181036000830152612f6681612bd7565b9050919050565b60006020820190508181036000830152612f8681612bfa565b9050919050565b60006020820190508181036000830152612fa681612c1d565b9050919050565b60006020820190508181036000830152612fc681612c40565b9050919050565b60006020820190508181036000830152612fe681612c63565b9050919050565b6000602082019050818103600083015261300681612c86565b9050919050565b6000602082019050818103600083015261302681612ca9565b9050919050565b6000602082019050818103600083015261304681612ccc565b9050919050565b6000602082019050818103600083015261306681612cef565b9050919050565b6000602082019050818103600083015261308681612d12565b9050919050565b600060208201905081810360008301526130a681612d35565b9050919050565b60006020820190506130c26000830184612d67565b92915050565b60006040820190506130dd6000830185612d67565b6130ea6020830184612d67565b9392505050565b60006130fb61310c565b90506131078282613404565b919050565b6000604051905090565b600067ffffffffffffffff8211156131315761313061353c565b5b602082029050602081019050919050565b600067ffffffffffffffff82111561315d5761315c61353c565b5b602082029050602081019050919050565b600067ffffffffffffffff8211156131895761318861353c565b5b6131928261358d565b9050602081019050919050565b600067ffffffffffffffff8211156131ba576131b961353c565b5b6131c38261358d565b9050602081019050919050565b6000819050602082019050919050565b60008190508160005260206000209050919050565b600081519050919050565b600081519050919050565b600081519050919050565b6000602082019050919050565b600082825260208201905092915050565b600082825260208201905092915050565b600082825260208201905092915050565b600081905092915050565b600061326c82613386565b915061327783613386565b9250827fffffffffffffffffffffffffffffffffffffffffffffffffffffffffffffffff038211156132ac576132ab6134af565b5b828201905092915050565b60006132c282613386565b91506132cd83613386565b9250826132dd576132dc6134de565b5b828204905092915050565b60006132f382613386565b91506132fe83613386565b925082821015613311576133106134af565b5b828203905092915050565b600061332782613366565b9050919050565b60008115159050919050565b60007fffffffff0000000000000000000000000000000000000000000000000000000082169050919050565b600073ffffffffffffffffffffffffffffffffffffffff82169050919050565b6000819050919050565b82818337600083830152505050565b60005b838110156133bd5780820151818401526020810190506133a2565b838111156133cc576000848401525b50505050565b600060028204905060018216806133ea57607f821691505b602082108114156133fe576133fd61350d565b5b50919050565b61340d8261358d565b810181811067ffffffffffffffff8211171561342c5761342b61353c565b5b80604052505050565b600061344082613386565b91507fffffffffffffffffffffffffffffffffffffffffffffffffffffffffffffffff821415613473576134726134af565b5b600182019050919050565b600061348982613386565b915061349483613386565b9250826134a4576134a36134de565b5b828206905092915050565b7f4e487b7100000000000000000000000000000000000000000000000000000000600052601160045260246000fd5b7f4e487b7100000000000000000000000000000000000000000000000000000000600052601260045260246000fd5b7f4e487b7100000000000000000000000000000000000000000000000000000000600052602260045260246000fd5b7f4e487b7100000000000000000000000000000000000000000000000000000000600052604160045260246000fd5b600060033d111561358a5760046000803e61358760005161359e565b90505b90565b6000601f19601f8301169050919050565b60008160e01c9050919050565b7f455243313135353a207472616e7366657220746f206e6f6e204552433131353560008201527f526563656976657220696d706c656d656e746572000000000000000000000000602082015250565b7f455243313135353a204552433131353552656365697665722072656a6563746560008201527f6420746f6b656e73000000000000000000000000000000000000000000000000602082015250565b7f455243313135353a2062616c616e636520717565727920666f7220746865207a60008201527f65726f2061646472657373000000000000000000000000000000000000000000602082015250565b7f4f776e61626c653a206e6577206f776e657220697320746865207a65726f206160008201527f6464726573730000000000000000000000000000000000000000000000000000602082015250565b7f455243313135353a2063616c6c6572206973206e6f74206f776e6572206e6f7260008201527f20617070726f7665640000000000000000000000000000000000000000000000602082015250565b7f455243313135353a207472616e7366657220746f20746865207a65726f20616460008201527f6472657373000000000000000000000000000000000000000000000000000000602082015250565b7f455243313135353a207472616e736665722063616c6c6572206973206e6f742060008201527f6f776e6572206e6f7220617070726f7665640000000000000000000000000000602082015250565b7f455243313135353a20696e73756666696369656e742062616c616e636520666f60008201527f72207472616e7366657200000000000000000000000000000000000000000000602082015250565b7f4f776e61626c653a2063616c6c6572206973206e6f7420746865206f776e6572600082015250565b7f455243313135353a2073657474696e6720617070726f76616c2073746174757360008201527f20666f722073656c660000000000000000000000000000000000000000000000602082015250565b7f455243313135353a206163636f756e747320616e6420696473206c656e67746860008201527f206d69736d617463680000000000000000000000000000000000000000000000602082015250565b7f455243313135353a2069647320616e6420616d6f756e7473206c656e6774682060008201527f6d69736d61746368000000000000000000000000000000000000000000000000602082015250565b7f455243313135353a206d696e7420746f20746865207a65726f2061646472657360008201527f7300000000000000000000000000000000000000000000000000000000000000602082015250565b600060443d101561399857613a1b565b6139a061310c565b60043d036004823e80513d602482011167ffffffffffffffff821117156139c8575050613a1b565b808201805167ffffffffffffffff8111156139e65750505050613a1b565b80602083010160043d038501811115613a03575050505050613a1b565b613a1282602001850186613404565b82955050505050505b90565b613a278161331c565b8114613a3257600080fd5b50565b613a3e8161332e565b8114613a4957600080fd5b50565b613a558161333a565b8114613a6057600080fd5b50565b613a6c81613386565b8114613a7757600080fd5b5056fea26469706673582212201f4962c954f5d02a36bdb276dc46f33f42eb379a50bdaa5797d458fd1051bf8e64736f6c63430008040033",
    "linkReferences": {},
    "deployedLinkReferences": {}
}