{
    "_format": "hh-sol-artifact-1",
    "contractName": "FakeAsunas",
    "sourceName": "contracts/FakeAsunas.sol",
    "abi": [
        {
            "inputs": [
                {
                    "internalType": "string",
                    "name": "_name",
                    "type": "string"
                },
                {
                    "internalType": "string",
                    "name": "_symbol",
                    "type": "string"
                },
                {
                    "internalType": "string",
                    "name": "baseTokenURI_",
                    "type": "string"
                }
            ],
            "stateMutability": "nonpayable",
            "type": "constructor"
        },
        {
            "inputs": [],
            "name": "ApprovalCallerNotOwnerNorApproved",
            "type": "error"
        },
        {
            "inputs": [],
            "name": "ApprovalQueryForNonexistentToken",
            "type": "error"
        },
        {
            "inputs": [],
            "name": "ApprovalToCurrentOwner",
            "type": "error"
        },
        {
            "inputs": [],
            "name": "ApproveToCaller",
            "type": "error"
        },
        {
            "inputs": [],
            "name": "BalanceQueryForZeroAddress",
            "type": "error"
        },
        {
            "inputs": [],
            "name": "MintToZeroAddress",
            "type": "error"
        },
        {
            "inputs": [],
            "name": "MintZeroQuantity",
            "type": "error"
        },
        {
            "inputs": [],
            "name": "OwnerIndexOutOfBounds",
            "type": "error"
        },
        {
            "inputs": [],
            "name": "OwnerQueryForNonexistentToken",
            "type": "error"
        },
        {
            "inputs": [],
            "name": "TokenIndexOutOfBounds",
            "type": "error"
        },
        {
            "inputs": [],
            "name": "TransferCallerNotOwnerNorApproved",
            "type": "error"
        },
        {
            "inputs": [],
            "name": "TransferFromIncorrectOwner",
            "type": "error"
        },
        {
            "inputs": [],
            "name": "TransferToNonERC721ReceiverImplementer",
            "type": "error"
        },
        {
            "inputs": [],
            "name": "TransferToZeroAddress",
            "type": "error"
        },
        {
            "inputs": [],
            "name": "URIQueryForNonexistentToken",
            "type": "error"
        },
        {
            "anonymous": false,
            "inputs": [
                {
                    "indexed": true,
                    "internalType": "address",
                    "name": "owner",
                    "type": "address"
                },
                {
                    "indexed": true,
                    "internalType": "address",
                    "name": "approved",
                    "type": "address"
                },
                {
                    "indexed": true,
                    "internalType": "uint256",
                    "name": "tokenId",
                    "type": "uint256"
                }
            ],
            "name": "Approval",
            "type": "event"
        },
        {
            "anonymous": false,
            "inputs": [
                {
                    "indexed": true,
                    "internalType": "address",
                    "name": "owner",
                    "type": "address"
                },
                {
                    "indexed": true,
                    "internalType": "address",
                    "name": "operator",
                    "type": "address"
                },
                {
                    "indexed": false,
                    "internalType": "bool",
                    "name": "approved",
                    "type": "bool"
                }
            ],
            "name": "ApprovalForAll",
            "type": "event"
        },
        {
            "anonymous": false,
            "inputs": [
                {
                    "indexed": true,
                    "internalType": "address",
                    "name": "previousOwner",
                    "type": "address"
                },
                {
                    "indexed": true,
                    "internalType": "address",
                    "name": "newOwner",
                    "type": "address"
                }
            ],
            "name": "OwnershipTransferred",
            "type": "event"
        },
        {
            "anonymous": false,
            "inputs": [
                {
                    "indexed": false,
                    "internalType": "address",
                    "name": "account",
                    "type": "address"
                }
            ],
            "name": "Paused",
            "type": "event"
        },
        {
            "anonymous": false,
            "inputs": [
                {
                    "indexed": true,
                    "internalType": "address",
                    "name": "from",
                    "type": "address"
                },
                {
                    "indexed": true,
                    "internalType": "address",
                    "name": "to",
                    "type": "address"
                },
                {
                    "indexed": true,
                    "internalType": "uint256",
                    "name": "tokenId",
                    "type": "uint256"
                }
            ],
            "name": "Transfer",
            "type": "event"
        },
        {
            "anonymous": false,
            "inputs": [
                {
                    "indexed": false,
                    "internalType": "address",
                    "name": "account",
                    "type": "address"
                }
            ],
            "name": "Unpaused",
            "type": "event"
        },
        {
            "inputs": [
                {
                    "internalType": "address",
                    "name": "_newAddress",
                    "type": "address"
                }
            ],
            "name": "addApprovedProxy",
            "outputs": [],
            "stateMutability": "nonpayable",
            "type": "function"
        },
        {
            "inputs": [
                {
                    "internalType": "address",
                    "name": "to",
                    "type": "address"
                },
                {
                    "internalType": "uint256",
                    "name": "tokenId",
                    "type": "uint256"
                }
            ],
            "name": "approve",
            "outputs": [],
            "stateMutability": "nonpayable",
            "type": "function"
        },
        {
            "inputs": [
                {
                    "internalType": "address",
                    "name": "owner",
                    "type": "address"
                }
            ],
            "name": "balanceOf",
            "outputs": [
                {
                    "internalType": "uint256",
                    "name": "",
                    "type": "uint256"
                }
            ],
            "stateMutability": "view",
            "type": "function"
        },
        {
            "inputs": [],
            "name": "baseTokenURI",
            "outputs": [
                {
                    "internalType": "string",
                    "name": "",
                    "type": "string"
                }
            ],
            "stateMutability": "view",
            "type": "function"
        },
        {
            "inputs": [
                {
                    "internalType": "address",
                    "name": "proxyAddress",
                    "type": "address"
                }
            ],
            "name": "flipProxyState",
            "outputs": [],
            "stateMutability": "nonpayable",
            "type": "function"
        },
        {
            "inputs": [
                {
                    "internalType": "uint256",
                    "name": "tokenId",
                    "type": "uint256"
                }
            ],
            "name": "getApproved",
            "outputs": [
                {
                    "internalType": "address",
                    "name": "",
                    "type": "address"
                }
            ],
            "stateMutability": "view",
            "type": "function"
        },
        {
            "inputs": [
                {
                    "internalType": "uint256",
                    "name": "",
                    "type": "uint256"
                }
            ],
            "name": "includedProxies",
            "outputs": [
                {
                    "internalType": "address",
                    "name": "",
                    "type": "address"
                }
            ],
            "stateMutability": "view",
            "type": "function"
        },
        {
            "inputs": [
                {
                    "internalType": "address",
                    "name": "owner",
                    "type": "address"
                },
                {
                    "internalType": "address",
                    "name": "operator",
                    "type": "address"
                }
            ],
            "name": "isApprovedForAll",
            "outputs": [
                {
                    "internalType": "bool",
                    "name": "",
                    "type": "bool"
                }
            ],
            "stateMutability": "view",
            "type": "function"
        },
        {
            "inputs": [],
            "name": "mint",
            "outputs": [],
            "stateMutability": "nonpayable",
            "type": "function"
        },
        {
            "inputs": [],
            "name": "name",
            "outputs": [
                {
                    "internalType": "string",
                    "name": "",
                    "type": "string"
                }
            ],
            "stateMutability": "view",
            "type": "function"
        },
        {
            "inputs": [
                {
                    "internalType": "address",
                    "name": "owner",
                    "type": "address"
                }
            ],
            "name": "ownedTokensByAddress",
            "outputs": [
                {
                    "internalType": "uint256[]",
                    "name": "",
                    "type": "uint256[]"
                }
            ],
            "stateMutability": "view",
            "type": "function"
        },
        {
            "inputs": [],
            "name": "owner",
            "outputs": [
                {
                    "internalType": "address",
                    "name": "",
                    "type": "address"
                }
            ],
            "stateMutability": "view",
            "type": "function"
        },
        {
            "inputs": [
                {
                    "internalType": "uint256",
                    "name": "tokenId",
                    "type": "uint256"
                }
            ],
            "name": "ownerOf",
            "outputs": [
                {
                    "internalType": "address",
                    "name": "",
                    "type": "address"
                }
            ],
            "stateMutability": "view",
            "type": "function"
        },
        {
            "inputs": [],
            "name": "pause",
            "outputs": [],
            "stateMutability": "nonpayable",
            "type": "function"
        },
        {
            "inputs": [],
            "name": "paused",
            "outputs": [
                {
                    "internalType": "bool",
                    "name": "",
                    "type": "bool"
                }
            ],
            "stateMutability": "view",
            "type": "function"
        },
        {
            "inputs": [
                {
                    "internalType": "address",
                    "name": "",
                    "type": "address"
                }
            ],
            "name": "proxyToApprove",
            "outputs": [
                {
                    "internalType": "bool",
                    "name": "",
                    "type": "bool"
                }
            ],
            "stateMutability": "view",
            "type": "function"
        },
        {
            "inputs": [],
            "name": "receiverAddress",
            "outputs": [
                {
                    "internalType": "address",
                    "name": "",
                    "type": "address"
                }
            ],
            "stateMutability": "view",
            "type": "function"
        },
        {
            "inputs": [
                {
                    "internalType": "uint256",
                    "name": "index",
                    "type": "uint256"
                }
            ],
            "name": "removeApprovedProxyIndex",
            "outputs": [],
            "stateMutability": "nonpayable",
            "type": "function"
        },
        {
            "inputs": [],
            "name": "renounceOwnership",
            "outputs": [],
            "stateMutability": "nonpayable",
            "type": "function"
        },
        {
            "inputs": [
                {
                    "internalType": "uint256",
                    "name": "tokenId",
                    "type": "uint256"
                },
                {
                    "internalType": "uint256",
                    "name": "salePrice",
                    "type": "uint256"
                }
            ],
            "name": "royaltyInfo",
            "outputs": [
                {
                    "internalType": "address",
                    "name": "receiver",
                    "type": "address"
                },
                {
                    "internalType": "uint256",
                    "name": "royaltyAmount",
                    "type": "uint256"
                }
            ],
            "stateMutability": "view",
            "type": "function"
        },
        {
            "inputs": [
                {
                    "internalType": "address",
                    "name": "from",
                    "type": "address"
                },
                {
                    "internalType": "address",
                    "name": "to",
                    "type": "address"
                },
                {
                    "internalType": "uint256",
                    "name": "tokenId",
                    "type": "uint256"
                }
            ],
            "name": "safeTransferFrom",
            "outputs": [],
            "stateMutability": "nonpayable",
            "type": "function"
        },
        {
            "inputs": [
                {
                    "internalType": "address",
                    "name": "from",
                    "type": "address"
                },
                {
                    "internalType": "address",
                    "name": "to",
                    "type": "address"
                },
                {
                    "internalType": "uint256",
                    "name": "tokenId",
                    "type": "uint256"
                },
                {
                    "internalType": "bytes",
                    "name": "_data",
                    "type": "bytes"
                }
            ],
            "name": "safeTransferFrom",
            "outputs": [],
            "stateMutability": "nonpayable",
            "type": "function"
        },
        {
            "inputs": [
                {
                    "internalType": "address",
                    "name": "operator",
                    "type": "address"
                },
                {
                    "internalType": "bool",
                    "name": "approved",
                    "type": "bool"
                }
            ],
            "name": "setApprovalForAll",
            "outputs": [],
            "stateMutability": "nonpayable",
            "type": "function"
        },
        {
            "inputs": [
                {
                    "internalType": "string",
                    "name": "_newBaseURI",
                    "type": "string"
                }
            ],
            "name": "setBaseURI",
            "outputs": [],
            "stateMutability": "nonpayable",
            "type": "function"
        },
        {
            "inputs": [
                {
                    "internalType": "address",
                    "name": "_receiverAddress",
                    "type": "address"
                }
            ],
            "name": "setReceiverAddress",
            "outputs": [],
            "stateMutability": "nonpayable",
            "type": "function"
        },
        {
            "inputs": [
                {
                    "internalType": "bytes4",
                    "name": "interfaceId",
                    "type": "bytes4"
                }
            ],
            "name": "supportsInterface",
            "outputs": [
                {
                    "internalType": "bool",
                    "name": "",
                    "type": "bool"
                }
            ],
            "stateMutability": "view",
            "type": "function"
        },
        {
            "inputs": [],
            "name": "symbol",
            "outputs": [
                {
                    "internalType": "string",
                    "name": "",
                    "type": "string"
                }
            ],
            "stateMutability": "view",
            "type": "function"
        },
        {
            "inputs": [
                {
                    "internalType": "uint256",
                    "name": "index",
                    "type": "uint256"
                }
            ],
            "name": "tokenByIndex",
            "outputs": [
                {
                    "internalType": "uint256",
                    "name": "",
                    "type": "uint256"
                }
            ],
            "stateMutability": "view",
            "type": "function"
        },
        {
            "inputs": [
                {
                    "internalType": "address",
                    "name": "owner",
                    "type": "address"
                },
                {
                    "internalType": "uint256",
                    "name": "index",
                    "type": "uint256"
                }
            ],
            "name": "tokenOfOwnerByIndex",
            "outputs": [
                {
                    "internalType": "uint256",
                    "name": "",
                    "type": "uint256"
                }
            ],
            "stateMutability": "view",
            "type": "function"
        },
        {
            "inputs": [
                {
                    "internalType": "uint256",
                    "name": "tokenId",
                    "type": "uint256"
                }
            ],
            "name": "tokenURI",
            "outputs": [
                {
                    "internalType": "string",
                    "name": "",
                    "type": "string"
                }
            ],
            "stateMutability": "view",
            "type": "function"
        },
        {
            "inputs": [],
            "name": "totalSupply",
            "outputs": [
                {
                    "internalType": "uint256",
                    "name": "",
                    "type": "uint256"
                }
            ],
            "stateMutability": "view",
            "type": "function"
        },
        {
            "inputs": [
                {
                    "internalType": "address",
                    "name": "from",
                    "type": "address"
                },
                {
                    "internalType": "address",
                    "name": "to",
                    "type": "address"
                },
                {
                    "internalType": "uint256",
                    "name": "tokenId",
                    "type": "uint256"
                }
            ],
            "name": "transferFrom",
            "outputs": [],
            "stateMutability": "nonpayable",
            "type": "function"
        },
        {
            "inputs": [
                {
                    "internalType": "address",
                    "name": "newOwner",
                    "type": "address"
                }
            ],
            "name": "transferOwnership",
            "outputs": [],
            "stateMutability": "nonpayable",
            "type": "function"
        },
        {
            "inputs": [],
            "name": "unpause",
            "outputs": [],
            "stateMutability": "nonpayable",
            "type": "function"
        },
        {
            "inputs": [],
            "name": "withdrawMoney",
            "outputs": [],
            "stateMutability": "nonpayable",
            "type": "function"
        },
        {
            "stateMutability": "payable",
            "type": "receive"
        }
    ],
    "bytecode": "0x60806040523480156200001157600080fd5b5060405162004bca38038062004bca833981810160405281019062000037919062000303565b8282816001908051906020019062000051929190620001e1565b5080600290805190602001906200006a929190620001e1565b505050600160078190555062000095620000896200011360201b60201c565b6200011b60201b60201c565b6000600860146101000a81548160ff0219169083151502179055508060099080519060200190620000c8929190620001e1565b5030600c60006101000a81548173ffffffffffffffffffffffffffffffffffffffff021916908373ffffffffffffffffffffffffffffffffffffffff16021790555050505062000514565b600033905090565b6000600860009054906101000a900473ffffffffffffffffffffffffffffffffffffffff16905081600860006101000a81548173ffffffffffffffffffffffffffffffffffffffff021916908373ffffffffffffffffffffffffffffffffffffffff1602179055508173ffffffffffffffffffffffffffffffffffffffff168173ffffffffffffffffffffffffffffffffffffffff167f8be0079c531659141344cd1fd0a4f28419497f9722a3daafe3b4186f6b6457e060405160405180910390a35050565b828054620001ef9062000439565b90600052602060002090601f0160209004810192826200021357600085556200025f565b82601f106200022e57805160ff19168380011785556200025f565b828001600101855582156200025f579182015b828111156200025e57825182559160200191906001019062000241565b5b5090506200026e919062000272565b5090565b5b808211156200028d57600081600090555060010162000273565b5090565b6000620002a8620002a284620003cd565b620003a4565b905082815260208101848484011115620002c157600080fd5b620002ce84828562000403565b509392505050565b600082601f830112620002e857600080fd5b8151620002fa84826020860162000291565b91505092915050565b6000806000606084860312156200031957600080fd5b600084015167ffffffffffffffff8111156200033457600080fd5b6200034286828701620002d6565b935050602084015167ffffffffffffffff8111156200036057600080fd5b6200036e86828701620002d6565b925050604084015167ffffffffffffffff8111156200038c57600080fd5b6200039a86828701620002d6565b9150509250925092565b6000620003b0620003c3565b9050620003be82826200046f565b919050565b6000604051905090565b600067ffffffffffffffff821115620003eb57620003ea620004d4565b5b620003f68262000503565b9050602081019050919050565b60005b838110156200042357808201518184015260208101905062000406565b8381111562000433576000848401525b50505050565b600060028204905060018216806200045257607f821691505b60208210811415620004695762000468620004a5565b5b50919050565b6200047a8262000503565b810181811067ffffffffffffffff821117156200049c576200049b620004d4565b5b80604052505050565b7f4e487b7100000000000000000000000000000000000000000000000000000000600052602260045260246000fd5b7f4e487b7100000000000000000000000000000000000000000000000000000000600052604160045260246000fd5b6000601f19601f8301169050919050565b6146a680620005246000396000f3fe6080604052600436106102085760003560e01c80636b7489ac11610118578063b88d4fde116100a0578063d547cfb71161006f578063d547cfb71461075d578063dba028c214610788578063e985e9c5146107c5578063f2fde38b14610802578063f73c814b1461082b5761020f565b8063b88d4fde14610691578063c87b56dd146106ba578063cb65340d146106f7578063cf367ee8146107345761020f565b80638456cb59116100e75780638456cb59146105e45780638da5cb5b146105fb57806395d89b4114610626578063a22cb46514610651578063ac4460021461067a5761020f565b80636b7489ac1461053e57806370a0823114610567578063715018a6146105a45780638279c7db146105bb5761020f565b80632a55205a1161019b57806342842e0e1161016a57806342842e0e146104475780634f6ccce71461047057806355f804b3146104ad5780635c975abb146104d65780636352211e146105015761020f565b80632a55205a146103785780632f745c59146103b657806336a02c37146103f35780633f4ba83a146104305761020f565b80631249c58b116101d75780631249c58b146102e257806316fed3e2146102f957806318160ddd1461032457806323b872dd1461034f5761020f565b806301ffc9a71461021457806306fdde0314610251578063081812fc1461027c578063095ea7b3146102b95761020f565b3661020f57005b600080fd5b34801561022057600080fd5b5061023b60048036038101906102369190613a30565b610854565b6040516102489190613ed0565b60405180910390f35b34801561025d57600080fd5b5061026661099e565b6040516102739190613eeb565b60405180910390f35b34801561028857600080fd5b506102a3600480360381019061029e9190613af0565b610a30565b6040516102b09190613e1e565b60405180910390f35b3480156102c557600080fd5b506102e060048036038101906102db91906139f4565b610aac565b005b3480156102ee57600080fd5b506102f7610bb7565b005b34801561030557600080fd5b5061030e610c1a565b60405161031b9190613e1e565b60405180910390f35b34801561033057600080fd5b50610339610c40565b604051610346919061400d565b60405180910390f35b34801561035b57600080fd5b50610376600480360381019061037191906138ee565b610c95565b005b34801561038457600080fd5b5061039f600480360381019061039a9190613b19565b610ca5565b6040516103ad929190613e85565b60405180910390f35b3480156103c257600080fd5b506103dd60048036038101906103d891906139f4565b610d33565b6040516103ea919061400d565b60405180910390f35b3480156103ff57600080fd5b5061041a60048036038101906104159190613af0565b610f3a565b6040516104279190613e1e565b60405180910390f35b34801561043c57600080fd5b50610445610f79565b005b34801561045357600080fd5b5061046e600480360381019061046991906138ee565b610fff565b005b34801561047c57600080fd5b5061049760048036038101906104929190613af0565b61101f565b6040516104a4919061400d565b60405180910390f35b3480156104b957600080fd5b506104d460048036038101906104cf9190613aab565b611190565b005b3480156104e257600080fd5b506104eb611222565b6040516104f89190613ed0565b60405180910390f35b34801561050d57600080fd5b5061052860048036038101906105239190613af0565b611239565b6040516105359190613e1e565b60405180910390f35b34801561054a57600080fd5b5061056560048036038101906105609190613af0565b61124f565b005b34801561057357600080fd5b5061058e60048036038101906105899190613889565b6114a8565b60405161059b919061400d565b60405180910390f35b3480156105b057600080fd5b506105b9611578565b005b3480156105c757600080fd5b506105e260048036038101906105dd9190613889565b611600565b005b3480156105f057600080fd5b506105f96116fa565b005b34801561060757600080fd5b50610610611780565b60405161061d9190613e1e565b60405180910390f35b34801561063257600080fd5b5061063b6117aa565b6040516106489190613eeb565b60405180910390f35b34801561065d57600080fd5b50610678600480360381019061067391906139b8565b61183c565b005b34801561068657600080fd5b5061068f6119b4565b005b34801561069d57600080fd5b506106b860048036038101906106b3919061393d565b611b35565b005b3480156106c657600080fd5b506106e160048036038101906106dc9190613af0565b611b88565b6040516106ee9190613eeb565b60405180910390f35b34801561070357600080fd5b5061071e60048036038101906107199190613889565b611c27565b60405161072b9190613ed0565b60405180910390f35b34801561074057600080fd5b5061075b60048036038101906107569190613889565b611c47565b005b34801561076957600080fd5b50610772611d29565b60405161077f9190613eeb565b60405180910390f35b34801561079457600080fd5b506107af60048036038101906107aa9190613889565b611db7565b6040516107bc9190613eae565b60405180910390f35b3480156107d157600080fd5b506107ec60048036038101906107e791906138b2565b611eb1565b6040516107f99190613ed0565b60405180910390f35b34801561080e57600080fd5b5061082960048036038101906108249190613889565b61207a565b005b34801561083757600080fd5b50610852600480360381019061084d9190613889565b612172565b005b60007f80ac58cd000000000000000000000000000000000000000000000000000000007bffffffffffffffffffffffffffffffffffffffffffffffffffffffff1916827bffffffffffffffffffffffffffffffffffffffffffffffffffffffff1916148061091f57507f5b5e139f000000000000000000000000000000000000000000000000000000007bffffffffffffffffffffffffffffffffffffffffffffffffffffffff1916827bffffffffffffffffffffffffffffffffffffffffffffffffffffffff1916145b8061098757507f780e9d63000000000000000000000000000000000000000000000000000000007bffffffffffffffffffffffffffffffffffffffffffffffffffffffff1916827bffffffffffffffffffffffffffffffffffffffffffffffffffffffff1916145b80610997575061099682612295565b5b9050919050565b6060600180546109ad906142e2565b80601f01602080910402602001604051908101604052809291908181526020018280546109d9906142e2565b8015610a265780601f106109fb57610100808354040283529160200191610a26565b820191906000526020600020905b815481529060010190602001808311610a0957829003601f168201915b5050505050905090565b6000610a3b826122ff565b610a71576040517fcf4700e400000000000000000000000000000000000000000000000000000000815260040160405180910390fd5b6005600083815260200190815260200160002060009054906101000a900473ffffffffffffffffffffffffffffffffffffffff169050919050565b6000610ab782611239565b90508073ffffffffffffffffffffffffffffffffffffffff168373ffffffffffffffffffffffffffffffffffffffff161415610b1f576040517f943f7b8c00000000000000000000000000000000000000000000000000000000815260040160405180910390fd5b8073ffffffffffffffffffffffffffffffffffffffff16610b3e612367565b73ffffffffffffffffffffffffffffffffffffffff1614158015610b705750610b6e81610b69612367565b611eb1565b155b15610ba7576040517fcfb3b94200000000000000000000000000000000000000000000000000000000815260040160405180910390fd5b610bb283838361236f565b505050565b60026007541415610bfd576040517f08c379a0000000000000000000000000000000000000000000000000000000008152600401610bf490613fcd565b60405180910390fd5b6002600781905550610c10336001612421565b6001600781905550565b600c60009054906101000a900473ffffffffffffffffffffffffffffffffffffffff1681565b60008060109054906101000a90046fffffffffffffffffffffffffffffffff1660008054906101000a90046fffffffffffffffffffffffffffffffff16036fffffffffffffffffffffffffffffffff16905090565b610ca083838361243f565b505050565b600080610cb1846122ff565b610cf0576040517f08c379a0000000000000000000000000000000000000000000000000000000008152600401610ce790613f6d565b60405180910390fd5b600c60009054906101000a900473ffffffffffffffffffffffffffffffffffffffff16610d28610d2185600a61295c565b6064612972565b915091509250929050565b6000610d3e836114a8565b8210610d76576040517f0ddac30e00000000000000000000000000000000000000000000000000000000815260040160405180910390fd5b60008060009054906101000a90046fffffffffffffffffffffffffffffffff166fffffffffffffffffffffffffffffffff16905060008060005b83811015610f2e576000600360008381526020019081526020016000206040518060600160405290816000820160009054906101000a900473ffffffffffffffffffffffffffffffffffffffff1673ffffffffffffffffffffffffffffffffffffffff1673ffffffffffffffffffffffffffffffffffffffff1681526020016000820160149054906101000a900467ffffffffffffffff1667ffffffffffffffff1667ffffffffffffffff16815260200160008201601c9054906101000a900460ff1615151515815250509050806040015115610e8d5750610f21565b600073ffffffffffffffffffffffffffffffffffffffff16816000015173ffffffffffffffffffffffffffffffffffffffff1614610ecd57806000015192505b8773ffffffffffffffffffffffffffffffffffffffff168373ffffffffffffffffffffffffffffffffffffffff161415610f1f5786841415610f16578195505050505050610f34565b83806001019450505b505b8080600101915050610db0565b50600080fd5b92915050565b600b8181548110610f4a57600080fd5b906000526020600020016000915054906101000a900473ffffffffffffffffffffffffffffffffffffffff1681565b610f81612367565b73ffffffffffffffffffffffffffffffffffffffff16610f9f611780565b73ffffffffffffffffffffffffffffffffffffffff1614610ff5576040517f08c379a0000000000000000000000000000000000000000000000000000000008152600401610fec90613f8d565b60405180910390fd5b610ffd612988565b565b61101a83838360405180602001604052806000815250611b35565b505050565b60008060008054906101000a90046fffffffffffffffffffffffffffffffff166fffffffffffffffffffffffffffffffff1690506000805b82811015611158576000600360008381526020019081526020016000206040518060600160405290816000820160009054906101000a900473ffffffffffffffffffffffffffffffffffffffff1673ffffffffffffffffffffffffffffffffffffffff1673ffffffffffffffffffffffffffffffffffffffff1681526020016000820160149054906101000a900467ffffffffffffffff1667ffffffffffffffff1667ffffffffffffffff16815260200160008201601c9054906101000a900460ff1615151515815250509050806040015161114a5785831415611141578194505050505061118b565b82806001019350505b508080600101915050611057565b506040517fa723001c00000000000000000000000000000000000000000000000000000000815260040160405180910390fd5b919050565b611198612367565b73ffffffffffffffffffffffffffffffffffffffff166111b6611780565b73ffffffffffffffffffffffffffffffffffffffff161461120c576040517f08c379a000000000000000000000000000000000000000000000000000000000815260040161120390613f8d565b60405180910390fd5b81816009919061121d929190613673565b505050565b6000600860149054906101000a900460ff16905090565b600061124482612a2a565b600001519050919050565b611257612367565b73ffffffffffffffffffffffffffffffffffffffff16611275611780565b73ffffffffffffffffffffffffffffffffffffffff16146112cb576040517f08c379a00000000000000000000000000000000000000000000000000000000081526004016112c290613f8d565b60405180910390fd5b600b805490508110611312576040517f08c379a000000000000000000000000000000000000000000000000000000000815260040161130990613fed565b60405180910390fd5b60008190505b6001600b8054905061132a91906141e6565b81101561143757600b6001826113409190614105565b81548110611377577f4e487b7100000000000000000000000000000000000000000000000000000000600052603260045260246000fd5b9060005260206000200160009054906101000a900473ffffffffffffffffffffffffffffffffffffffff16600b82815481106113dc577f4e487b7100000000000000000000000000000000000000000000000000000000600052603260045260246000fd5b9060005260206000200160006101000a81548173ffffffffffffffffffffffffffffffffffffffff021916908373ffffffffffffffffffffffffffffffffffffffff160217905550808061142f90614345565b915050611318565b50600b805480611470577f4e487b7100000000000000000000000000000000000000000000000000000000600052603160045260246000fd5b6001900381819060005260206000200160006101000a81549073ffffffffffffffffffffffffffffffffffffffff0219169055905550565b60008073ffffffffffffffffffffffffffffffffffffffff168273ffffffffffffffffffffffffffffffffffffffff161415611510576040517f8f4eb60400000000000000000000000000000000000000000000000000000000815260040160405180910390fd5b600460008373ffffffffffffffffffffffffffffffffffffffff1673ffffffffffffffffffffffffffffffffffffffff16815260200190815260200160002060000160009054906101000a900467ffffffffffffffff1667ffffffffffffffff169050919050565b611580612367565b73ffffffffffffffffffffffffffffffffffffffff1661159e611780565b73ffffffffffffffffffffffffffffffffffffffff16146115f4576040517f08c379a00000000000000000000000000000000000000000000000000000000081526004016115eb90613f8d565b60405180910390fd5b6115fe6000612cd2565b565b611608612367565b73ffffffffffffffffffffffffffffffffffffffff16611626611780565b73ffffffffffffffffffffffffffffffffffffffff161461167c576040517f08c379a000000000000000000000000000000000000000000000000000000000815260040161167390613f8d565b60405180910390fd5b600073ffffffffffffffffffffffffffffffffffffffff168173ffffffffffffffffffffffffffffffffffffffff1614156116b657600080fd5b80600c60006101000a81548173ffffffffffffffffffffffffffffffffffffffff021916908373ffffffffffffffffffffffffffffffffffffffff16021790555050565b611702612367565b73ffffffffffffffffffffffffffffffffffffffff16611720611780565b73ffffffffffffffffffffffffffffffffffffffff1614611776576040517f08c379a000000000000000000000000000000000000000000000000000000000815260040161176d90613f8d565b60405180910390fd5b61177e612d98565b565b6000600860009054906101000a900473ffffffffffffffffffffffffffffffffffffffff16905090565b6060600280546117b9906142e2565b80601f01602080910402602001604051908101604052809291908181526020018280546117e5906142e2565b80156118325780601f1061180757610100808354040283529160200191611832565b820191906000526020600020905b81548152906001019060200180831161181557829003601f168201915b5050505050905090565b611844612367565b73ffffffffffffffffffffffffffffffffffffffff168273ffffffffffffffffffffffffffffffffffffffff1614156118a9576040517fb06307db00000000000000000000000000000000000000000000000000000000815260040160405180910390fd5b80600660006118b6612367565b73ffffffffffffffffffffffffffffffffffffffff1673ffffffffffffffffffffffffffffffffffffffff16815260200190815260200160002060008473ffffffffffffffffffffffffffffffffffffffff1673ffffffffffffffffffffffffffffffffffffffff16815260200190815260200160002060006101000a81548160ff0219169083151502179055508173ffffffffffffffffffffffffffffffffffffffff16611963612367565b73ffffffffffffffffffffffffffffffffffffffff167f17307eab39ab6107e8899845ad3d59bd9653f200f220920489ca2b5937696c31836040516119a89190613ed0565b60405180910390a35050565b6119bc612367565b73ffffffffffffffffffffffffffffffffffffffff166119da611780565b73ffffffffffffffffffffffffffffffffffffffff1614611a30576040517f08c379a0000000000000000000000000000000000000000000000000000000008152600401611a2790613f8d565b60405180910390fd5b60026007541415611a76576040517f08c379a0000000000000000000000000000000000000000000000000000000008152600401611a6d90613fcd565b60405180910390fd5b600260078190555060003373ffffffffffffffffffffffffffffffffffffffff1647604051611aa490613e09565b60006040518083038185875af1925050503d8060008114611ae1576040519150601f19603f3d011682016040523d82523d6000602084013e611ae6565b606091505b5050905080611b2a576040517f08c379a0000000000000000000000000000000000000000000000000000000008152600401611b2190613fad565b60405180910390fd5b506001600781905550565b611b4084848461243f565b611b4c84848484612e3b565b611b82576040517fd1a57ed600000000000000000000000000000000000000000000000000000000815260040160405180910390fd5b50505050565b6060611b93826122ff565b611bc9576040517fa14c4b5000000000000000000000000000000000000000000000000000000000815260040160405180910390fd5b6000611bd3612fc9565b9050600081511415611bf45760405180602001604052806000815250611c1f565b80611bfe8461305b565b604051602001611c0f929190613de5565b6040516020818303038152906040525b915050919050565b600a6020528060005260406000206000915054906101000a900460ff1681565b611c4f612367565b73ffffffffffffffffffffffffffffffffffffffff16611c6d611780565b73ffffffffffffffffffffffffffffffffffffffff1614611cc3576040517f08c379a0000000000000000000000000000000000000000000000000000000008152600401611cba90613f8d565b60405180910390fd5b600b819080600181540180825580915050600190039060005260206000200160009091909190916101000a81548173ffffffffffffffffffffffffffffffffffffffff021916908373ffffffffffffffffffffffffffffffffffffffff16021790555050565b60098054611d36906142e2565b80601f0160208091040260200160405190810160405280929190818152602001828054611d62906142e2565b8015611daf5780601f10611d8457610100808354040283529160200191611daf565b820191906000526020600020905b815481529060010190602001808311611d9257829003601f168201915b505050505081565b60606000611dc4836114a8565b905060008167ffffffffffffffff811115611e08577f4e487b7100000000000000000000000000000000000000000000000000000000600052604160045260246000fd5b604051908082528060200260200182016040528015611e365781602001602082028036833780820191505090505b50905060005b82811015611ea657611e4e8582610d33565b828281518110611e87577f4e487b7100000000000000000000000000000000000000000000000000000000600052603260045260246000fd5b6020026020010181815250508080611e9e90614345565b915050611e3c565b508092505050919050565b600080600090505b600b80549050811015612066576000600b8281548110611f02577f4e487b7100000000000000000000000000000000000000000000000000000000600052603260045260246000fd5b9060005260206000200160009054906101000a900473ffffffffffffffffffffffffffffffffffffffff1690506000819050600a60008373ffffffffffffffffffffffffffffffffffffffff1673ffffffffffffffffffffffffffffffffffffffff16815260200190815260200160002060009054906101000a900460ff16801561204057508473ffffffffffffffffffffffffffffffffffffffff168173ffffffffffffffffffffffffffffffffffffffff1663c4552791886040518263ffffffff1660e01b8152600401611fd89190613e1e565b60206040518083038186803b158015611ff057600080fd5b505afa158015612004573d6000803e3d6000fd5b505050506040513d601f19601f820116820180604052508101906120289190613a82565b73ffffffffffffffffffffffffffffffffffffffff16145b156120515760019350505050612074565b5050808061205e90614345565b915050611eb9565b506120718383613208565b90505b92915050565b612082612367565b73ffffffffffffffffffffffffffffffffffffffff166120a0611780565b73ffffffffffffffffffffffffffffffffffffffff16146120f6576040517f08c379a00000000000000000000000000000000000000000000000000000000081526004016120ed90613f8d565b60405180910390fd5b600073ffffffffffffffffffffffffffffffffffffffff168173ffffffffffffffffffffffffffffffffffffffff161415612166576040517f08c379a000000000000000000000000000000000000000000000000000000000815260040161215d90613f2d565b60405180910390fd5b61216f81612cd2565b50565b61217a612367565b73ffffffffffffffffffffffffffffffffffffffff16612198611780565b73ffffffffffffffffffffffffffffffffffffffff16146121ee576040517f08c379a00000000000000000000000000000000000000000000000000000000081526004016121e590613f8d565b60405180910390fd5b600a60008273ffffffffffffffffffffffffffffffffffffffff1673ffffffffffffffffffffffffffffffffffffffff16815260200190815260200160002060009054906101000a900460ff1615600a60008373ffffffffffffffffffffffffffffffffffffffff1673ffffffffffffffffffffffffffffffffffffffff16815260200190815260200160002060006101000a81548160ff02191690831515021790555050565b60007f01ffc9a7000000000000000000000000000000000000000000000000000000007bffffffffffffffffffffffffffffffffffffffffffffffffffffffff1916827bffffffffffffffffffffffffffffffffffffffffffffffffffffffff1916149050919050565b60008060009054906101000a90046fffffffffffffffffffffffffffffffff166fffffffffffffffffffffffffffffffff1682108015612360575060036000838152602001908152602001600020600001601c9054906101000a900460ff16155b9050919050565b600033905090565b826005600084815260200190815260200160002060006101000a81548173ffffffffffffffffffffffffffffffffffffffff021916908373ffffffffffffffffffffffffffffffffffffffff160217905550818373ffffffffffffffffffffffffffffffffffffffff168273ffffffffffffffffffffffffffffffffffffffff167f8c5be1e5ebec7d5bd14f71427d1e84f3dd0314c0f7b2291e5b200ac8c7c3b92560405160405180910390a4505050565b61243b82826040518060200160405280600081525061329c565b5050565b600061244a82612a2a565b90506000816000015173ffffffffffffffffffffffffffffffffffffffff16612471612367565b73ffffffffffffffffffffffffffffffffffffffff1614806124a457506124a3826000015161249e612367565b611eb1565b5b806124e957506124b2612367565b73ffffffffffffffffffffffffffffffffffffffff166124d184610a30565b73ffffffffffffffffffffffffffffffffffffffff16145b905080612522576040517f59c896be00000000000000000000000000000000000000000000000000000000815260040160405180910390fd5b8473ffffffffffffffffffffffffffffffffffffffff16826000015173ffffffffffffffffffffffffffffffffffffffff161461258b576040517fa114810000000000000000000000000000000000000000000000000000000000815260040160405180910390fd5b600073ffffffffffffffffffffffffffffffffffffffff168473ffffffffffffffffffffffffffffffffffffffff1614156125f2576040517fea553b3400000000000000000000000000000000000000000000000000000000815260040160405180910390fd5b6125ff85858560016132ae565b61260f600084846000015161236f565b6001600460008773ffffffffffffffffffffffffffffffffffffffff1673ffffffffffffffffffffffffffffffffffffffff16815260200190815260200160002060000160008282829054906101000a900467ffffffffffffffff160392506101000a81548167ffffffffffffffff021916908367ffffffffffffffff1602179055506001600460008673ffffffffffffffffffffffffffffffffffffffff1673ffffffffffffffffffffffffffffffffffffffff16815260200190815260200160002060000160008282829054906101000a900467ffffffffffffffff160192506101000a81548167ffffffffffffffff021916908367ffffffffffffffff160217905550836003600085815260200190815260200160002060000160006101000a81548173ffffffffffffffffffffffffffffffffffffffff021916908373ffffffffffffffffffffffffffffffffffffffff160217905550426003600085815260200190815260200160002060000160146101000a81548167ffffffffffffffff021916908367ffffffffffffffff1602179055506000600184019050600073ffffffffffffffffffffffffffffffffffffffff166003600083815260200190815260200160002060000160009054906101000a900473ffffffffffffffffffffffffffffffffffffffff1673ffffffffffffffffffffffffffffffffffffffff1614156128ec5760008054906101000a90046fffffffffffffffffffffffffffffffff166fffffffffffffffffffffffffffffffff168110156128eb5782600001516003600083815260200190815260200160002060000160006101000a81548173ffffffffffffffffffffffffffffffffffffffff021916908373ffffffffffffffffffffffffffffffffffffffff16021790555082602001516003600083815260200190815260200160002060000160146101000a81548167ffffffffffffffff021916908367ffffffffffffffff1602179055505b5b50828473ffffffffffffffffffffffffffffffffffffffff168673ffffffffffffffffffffffffffffffffffffffff167fddf252ad1be2c89b69c2b068fc378daa952ba7f163c4a11628f55a4df523b3ef60405160405180910390a461295585858560016132b4565b5050505050565b6000818361296a919061418c565b905092915050565b60008183612980919061415b565b905092915050565b612990611222565b6129cf576040517f08c379a00000000000000000000000000000000000000000000000000000000081526004016129c690613f0d565b60405180910390fd5b6000600860146101000a81548160ff0219169083151502179055507f5db9ee0a495bf2e6ff9c91a7834c1ba4fdd244a5e8aa4e537bd38aeae4b073aa612a13612367565b604051612a209190613e1e565b60405180910390a1565b612a326136f9565b600082905060008054906101000a90046fffffffffffffffffffffffffffffffff166fffffffffffffffffffffffffffffffff16811015612c9b576000600360008381526020019081526020016000206040518060600160405290816000820160009054906101000a900473ffffffffffffffffffffffffffffffffffffffff1673ffffffffffffffffffffffffffffffffffffffff1673ffffffffffffffffffffffffffffffffffffffff1681526020016000820160149054906101000a900467ffffffffffffffff1667ffffffffffffffff1667ffffffffffffffff16815260200160008201601c9054906101000a900460ff16151515158152505090508060400151612c9957600073ffffffffffffffffffffffffffffffffffffffff16816000015173ffffffffffffffffffffffffffffffffffffffff1614612b7d578092505050612ccd565b5b600115612c9857818060019003925050600360008381526020019081526020016000206040518060600160405290816000820160009054906101000a900473ffffffffffffffffffffffffffffffffffffffff1673ffffffffffffffffffffffffffffffffffffffff1673ffffffffffffffffffffffffffffffffffffffff1681526020016000820160149054906101000a900467ffffffffffffffff1667ffffffffffffffff1667ffffffffffffffff16815260200160008201601c9054906101000a900460ff1615151515815250509050600073ffffffffffffffffffffffffffffffffffffffff16816000015173ffffffffffffffffffffffffffffffffffffffff1614612c93578092505050612ccd565b612b7e565b5b505b6040517fdf2d9b4200000000000000000000000000000000000000000000000000000000815260040160405180910390fd5b919050565b6000600860009054906101000a900473ffffffffffffffffffffffffffffffffffffffff16905081600860006101000a81548173ffffffffffffffffffffffffffffffffffffffff021916908373ffffffffffffffffffffffffffffffffffffffff1602179055508173ffffffffffffffffffffffffffffffffffffffff168173ffffffffffffffffffffffffffffffffffffffff167f8be0079c531659141344cd1fd0a4f28419497f9722a3daafe3b4186f6b6457e060405160405180910390a35050565b612da0611222565b15612de0576040517f08c379a0000000000000000000000000000000000000000000000000000000008152600401612dd790613f4d565b60405180910390fd5b6001600860146101000a81548160ff0219169083151502179055507f62e78cea01bee320cd4e420270b5ea74000d11b0c9f74754ebdbfc544b05a258612e24612367565b604051612e319190613e1e565b60405180910390a1565b6000612e5c8473ffffffffffffffffffffffffffffffffffffffff166132ba565b15612fbc578373ffffffffffffffffffffffffffffffffffffffff1663150b7a02612e85612367565b8786866040518563ffffffff1660e01b8152600401612ea79493929190613e39565b602060405180830381600087803b158015612ec157600080fd5b505af1925050508015612ef257506040513d601f19601f82011682018060405250810190612eef9190613a59565b60015b612f6c573d8060008114612f22576040519150601f19603f3d011682016040523d82523d6000602084013e612f27565b606091505b50600081511415612f64576040517fd1a57ed600000000000000000000000000000000000000000000000000000000815260040160405180910390fd5b805181602001fd5b63150b7a0260e01b7bffffffffffffffffffffffffffffffffffffffffffffffffffffffff1916817bffffffffffffffffffffffffffffffffffffffffffffffffffffffff191614915050612fc1565b600190505b949350505050565b606060098054612fd8906142e2565b80601f0160208091040260200160405190810160405280929190818152602001828054613004906142e2565b80156130515780601f1061302657610100808354040283529160200191613051565b820191906000526020600020905b81548152906001019060200180831161303457829003601f168201915b5050505050905090565b606060008214156130a3576040518060400160405280600181526020017f30000000000000000000000000000000000000000000000000000000000000008152509050613203565b600082905060005b600082146130d55780806130be90614345565b915050600a826130ce919061415b565b91506130ab565b60008167ffffffffffffffff811115613117577f4e487b7100000000000000000000000000000000000000000000000000000000600052604160045260246000fd5b6040519080825280601f01601f1916602001820160405280156131495781602001600182028036833780820191505090505b5090505b600085146131fc5760018261316291906141e6565b9150600a85613171919061438e565b603061317d9190614105565b60f81b8183815181106131b9577f4e487b7100000000000000000000000000000000000000000000000000000000600052603260045260246000fd5b60200101907effffffffffffffffffffffffffffffffffffffffffffffffffffffffffffff1916908160001a905350600a856131f5919061415b565b945061314d565b8093505050505b919050565b6000600660008473ffffffffffffffffffffffffffffffffffffffff1673ffffffffffffffffffffffffffffffffffffffff16815260200190815260200160002060008373ffffffffffffffffffffffffffffffffffffffff1673ffffffffffffffffffffffffffffffffffffffff16815260200190815260200160002060009054906101000a900460ff16905092915050565b6132a983838360016132dd565b505050565b50505050565b50505050565b6000808273ffffffffffffffffffffffffffffffffffffffff163b119050919050565b60008060009054906101000a90046fffffffffffffffffffffffffffffffff166fffffffffffffffffffffffffffffffff169050600073ffffffffffffffffffffffffffffffffffffffff168573ffffffffffffffffffffffffffffffffffffffff161415613378576040517f2e07630000000000000000000000000000000000000000000000000000000000815260040160405180910390fd5b60008414156133b3576040517fb562e8dd00000000000000000000000000000000000000000000000000000000815260040160405180910390fd5b6133c060008683876132ae565b83600460008773ffffffffffffffffffffffffffffffffffffffff1673ffffffffffffffffffffffffffffffffffffffff16815260200190815260200160002060000160008282829054906101000a900467ffffffffffffffff160192506101000a81548167ffffffffffffffff021916908367ffffffffffffffff16021790555083600460008773ffffffffffffffffffffffffffffffffffffffff1673ffffffffffffffffffffffffffffffffffffffff16815260200190815260200160002060000160088282829054906101000a900467ffffffffffffffff160192506101000a81548167ffffffffffffffff021916908367ffffffffffffffff160217905550846003600083815260200190815260200160002060000160006101000a81548173ffffffffffffffffffffffffffffffffffffffff021916908373ffffffffffffffffffffffffffffffffffffffff160217905550426003600083815260200190815260200160002060000160146101000a81548167ffffffffffffffff021916908367ffffffffffffffff160217905550600081905060005b8581101561362557818773ffffffffffffffffffffffffffffffffffffffff16600073ffffffffffffffffffffffffffffffffffffffff167fddf252ad1be2c89b69c2b068fc378daa952ba7f163c4a11628f55a4df523b3ef60405160405180910390a48380156135d957506135d76000888488612e3b565b155b15613610576040517fd1a57ed600000000000000000000000000000000000000000000000000000000815260040160405180910390fd5b8180600101925050808060010191505061355e565b50806000806101000a8154816fffffffffffffffffffffffffffffffff02191690836fffffffffffffffffffffffffffffffff1602179055505061366c60008683876132b4565b5050505050565b82805461367f906142e2565b90600052602060002090601f0160209004810192826136a157600085556136e8565b82601f106136ba57803560ff19168380011785556136e8565b828001600101855582156136e8579182015b828111156136e75782358255916020019190600101906136cc565b5b5090506136f5919061373c565b5090565b6040518060600160405280600073ffffffffffffffffffffffffffffffffffffffff168152602001600067ffffffffffffffff1681526020016000151581525090565b5b8082111561375557600081600090555060010161373d565b5090565b600061376c6137678461404d565b614028565b90508281526020810184848401111561378457600080fd5b61378f8482856142a0565b509392505050565b6000813590506137a6816145fd565b92915050565b6000813590506137bb81614614565b92915050565b6000813590506137d08161462b565b92915050565b6000815190506137e58161462b565b92915050565b600082601f8301126137fc57600080fd5b813561380c848260208601613759565b91505092915050565b60008151905061382481614642565b92915050565b60008083601f84011261383c57600080fd5b8235905067ffffffffffffffff81111561385557600080fd5b60208301915083600182028301111561386d57600080fd5b9250929050565b60008135905061388381614659565b92915050565b60006020828403121561389b57600080fd5b60006138a984828501613797565b91505092915050565b600080604083850312156138c557600080fd5b60006138d385828601613797565b92505060206138e485828601613797565b9150509250929050565b60008060006060848603121561390357600080fd5b600061391186828701613797565b935050602061392286828701613797565b925050604061393386828701613874565b9150509250925092565b6000806000806080858703121561395357600080fd5b600061396187828801613797565b945050602061397287828801613797565b935050604061398387828801613874565b925050606085013567ffffffffffffffff8111156139a057600080fd5b6139ac878288016137eb565b91505092959194509250565b600080604083850312156139cb57600080fd5b60006139d985828601613797565b92505060206139ea858286016137ac565b9150509250929050565b60008060408385031215613a0757600080fd5b6000613a1585828601613797565b9250506020613a2685828601613874565b9150509250929050565b600060208284031215613a4257600080fd5b6000613a50848285016137c1565b91505092915050565b600060208284031215613a6b57600080fd5b6000613a79848285016137d6565b91505092915050565b600060208284031215613a9457600080fd5b6000613aa284828501613815565b91505092915050565b60008060208385031215613abe57600080fd5b600083013567ffffffffffffffff811115613ad857600080fd5b613ae48582860161382a565b92509250509250929050565b600060208284031215613b0257600080fd5b6000613b1084828501613874565b91505092915050565b60008060408385031215613b2c57600080fd5b6000613b3a85828601613874565b9250506020613b4b85828601613874565b9150509250929050565b6000613b618383613dc7565b60208301905092915050565b613b768161421a565b82525050565b6000613b878261408e565b613b9181856140bc565b9350613b9c8361407e565b8060005b83811015613bcd578151613bb48882613b55565b9750613bbf836140af565b925050600181019050613ba0565b5085935050505092915050565b613be38161422c565b82525050565b6000613bf482614099565b613bfe81856140cd565b9350613c0e8185602086016142af565b613c178161447b565b840191505092915050565b6000613c2d826140a4565b613c3781856140e9565b9350613c478185602086016142af565b613c508161447b565b840191505092915050565b6000613c66826140a4565b613c7081856140fa565b9350613c808185602086016142af565b80840191505092915050565b6000613c996014836140e9565b9150613ca48261448c565b602082019050919050565b6000613cbc6026836140e9565b9150613cc7826144b5565b604082019050919050565b6000613cdf6010836140e9565b9150613cea82614504565b602082019050919050565b6000613d026011836140e9565b9150613d0d8261452d565b602082019050919050565b6000613d256020836140e9565b9150613d3082614556565b602082019050919050565b6000613d486000836140de565b9150613d538261457f565b600082019050919050565b6000613d6b6010836140e9565b9150613d7682614582565b602082019050919050565b6000613d8e601f836140e9565b9150613d99826145ab565b602082019050919050565b6000613db1601e836140e9565b9150613dbc826145d4565b602082019050919050565b613dd081614296565b82525050565b613ddf81614296565b82525050565b6000613df18285613c5b565b9150613dfd8284613c5b565b91508190509392505050565b6000613e1482613d3b565b9150819050919050565b6000602082019050613e336000830184613b6d565b92915050565b6000608082019050613e4e6000830187613b6d565b613e5b6020830186613b6d565b613e686040830185613dd6565b8181036060830152613e7a8184613be9565b905095945050505050565b6000604082019050613e9a6000830185613b6d565b613ea76020830184613dd6565b9392505050565b60006020820190508181036000830152613ec88184613b7c565b905092915050565b6000602082019050613ee56000830184613bda565b92915050565b60006020820190508181036000830152613f058184613c22565b905092915050565b60006020820190508181036000830152613f2681613c8c565b9050919050565b60006020820190508181036000830152613f4681613caf565b9050919050565b60006020820190508181036000830152613f6681613cd2565b9050919050565b60006020820190508181036000830152613f8681613cf5565b9050919050565b60006020820190508181036000830152613fa681613d18565b9050919050565b60006020820190508181036000830152613fc681613d5e565b9050919050565b60006020820190508181036000830152613fe681613d81565b9050919050565b6000602082019050818103600083015261400681613da4565b9050919050565b60006020820190506140226000830184613dd6565b92915050565b6000614032614043565b905061403e8282614314565b919050565b6000604051905090565b600067ffffffffffffffff8211156140685761406761444c565b5b6140718261447b565b9050602081019050919050565b6000819050602082019050919050565b600081519050919050565b600081519050919050565b600081519050919050565b6000602082019050919050565b600082825260208201905092915050565b600082825260208201905092915050565b600081905092915050565b600082825260208201905092915050565b600081905092915050565b600061411082614296565b915061411b83614296565b9250827fffffffffffffffffffffffffffffffffffffffffffffffffffffffffffffffff038211156141505761414f6143bf565b5b828201905092915050565b600061416682614296565b915061417183614296565b925082614181576141806143ee565b5b828204905092915050565b600061419782614296565b91506141a283614296565b9250817fffffffffffffffffffffffffffffffffffffffffffffffffffffffffffffffff04831182151516156141db576141da6143bf565b5b828202905092915050565b60006141f182614296565b91506141fc83614296565b92508282101561420f5761420e6143bf565b5b828203905092915050565b600061422582614276565b9050919050565b60008115159050919050565b60007fffffffff0000000000000000000000000000000000000000000000000000000082169050919050565b600061426f8261421a565b9050919050565b600073ffffffffffffffffffffffffffffffffffffffff82169050919050565b6000819050919050565b82818337600083830152505050565b60005b838110156142cd5780820151818401526020810190506142b2565b838111156142dc576000848401525b50505050565b600060028204905060018216806142fa57607f821691505b6020821081141561430e5761430d61441d565b5b50919050565b61431d8261447b565b810181811067ffffffffffffffff8211171561433c5761433b61444c565b5b80604052505050565b600061435082614296565b91507fffffffffffffffffffffffffffffffffffffffffffffffffffffffffffffffff821415614383576143826143bf565b5b600182019050919050565b600061439982614296565b91506143a483614296565b9250826143b4576143b36143ee565b5b828206905092915050565b7f4e487b7100000000000000000000000000000000000000000000000000000000600052601160045260246000fd5b7f4e487b7100000000000000000000000000000000000000000000000000000000600052601260045260246000fd5b7f4e487b7100000000000000000000000000000000000000000000000000000000600052602260045260246000fd5b7f4e487b7100000000000000000000000000000000000000000000000000000000600052604160045260246000fd5b6000601f19601f8301169050919050565b7f5061757361626c653a206e6f7420706175736564000000000000000000000000600082015250565b7f4f776e61626c653a206e6577206f776e657220697320746865207a65726f206160008201527f6464726573730000000000000000000000000000000000000000000000000000602082015250565b7f5061757361626c653a2070617573656400000000000000000000000000000000600082015250565b7f4e6f6e6578697374656e7420746f6b656e000000000000000000000000000000600082015250565b7f4f776e61626c653a2063616c6c6572206973206e6f7420746865206f776e6572600082015250565b50565b7f5472616e73666572206661696c65642e00000000000000000000000000000000600082015250565b7f5265656e7472616e637947756172643a207265656e7472616e742063616c6c00600082015250565b7f417272617920646f6573206e6f742068617665207468697320696e6465780000600082015250565b6146068161421a565b811461461157600080fd5b50565b61461d8161422c565b811461462857600080fd5b50565b61463481614238565b811461463f57600080fd5b50565b61464b81614264565b811461465657600080fd5b50565b61466281614296565b811461466d57600080fd5b5056fea2646970667358221220d4db8ea09d0d69036acc53203bbd39568ef1d54564b08d3164356b4cef36273664736f6c63430008040033",
    "linkReferences": {},
    "deployedLinkReferences": {}
}